:1000000003C1000032C1000030C100002EC1000059
:100010002CC100002AC1000028C1000026C1000038
:1000200024C1000022C1000020C100001EC1000048
:100030001CC100001AC1000018C100000C948E0CF5
:1000400014C1000012C1000010C100000EC1000068
:100050000CC100000AC1000008C100000C94250B6F
:1000600004C100000C94EF0A0C94C50AFEC0000005
:10007000FCC00000FAC00000F8C00000F6C000009C
:10008000F4C00000F2C00000F0C00000EEC00000AC
:100090000C948F0A0C94650AE8C000000C946F0B56
:1000A000E4C00000E2C00000E0C00000DEC00000CC
:1000B000DCC00000DAC00000D8C00000D6C00000DC
:1000C000D4C00000D2C00000D0C00000CEC00000EC
:1000D000CCC00000CAC00000C8C00000C6C00000FC
:1000E000C4C0000000002200250028002B002E00C4
:1000F0003100340002010000050108010B0100007D
:1001000020002300260029002C002F0032000001CF
:10011000000003010601090100000A0B02090C0D91
:100120000E080703040100000000000000000000AA
:1001300000000000000000000000000000000000BF
:10014000000000001211100000000000000000007C
:10015000000000000000000000000000000000009F
:100160002100240027002A002D0030003300010167
:100170000000040107010A010102102020080810F4
:100180002040102040800201020108040201010207
:1001900004081020408080402010080402018004E0
:1001A000020180402010080402010804020101023B
:1001B000040810204080010204081020408005053A
:1001C0000505070508080808020202020A0A0808CD
:1001D00004040404010101010101010103030303FB
:1001E00003030303040707070C0C0C0C0C0C0C0C8A
:1001F0000202020206060606060606060B0B0B0B9B
:100200000B0B0B0BA20E710E11241FBECFEFD1E210
:10021000DEBFCDBF00E00CBF25E0A6EEB2E001C01E
:100220001D92AC32B207E1F712E0A0E0B2E0E4E9DF
:10023000F4E300E00BBF02C007900D92A63EB107A9
:10024000D9F711E0C3E0D1E000E006C02197010931
:10025000802FFE010E942615C230D10780E00807DA
:10026000A9F70E94DC0F0C94391ACACEFC01248134
:1002700035816217730720F480819181009729F4FA
:1002800010926B038BE693E00895860F971F0895F5
:100290000895DB0114964D915C9115976D917C91B9
:1002A000DC01ED91FC910280F381E02D19940F9314
:1002B0001F93CF93DF938C01C3EED4E069EE74E01B
:1002C00088819981E6DFB80188819981E2DF6FEE4C
:1002D00074E088819981DF91CF911F910F91D9CFDF
:1002E000AF92BF92CF92DF92EF92FF920F931F9344
:1002F000CF93DF936C017B018B01040F151FEB0182
:100300005E01AE18BF08C017D10759F06991D60138
:10031000ED91FC910190F081E02DC6011995892B9A
:1003200079F7C501DF91CF911F910F91FF90EF9069
:10033000DF90CF90BF90AF900895FC01538D448D16
:10034000252F30E0842F90E0821B930B541710F080
:10035000CF96089501970895FC01918D828D98178D
:1003600061F0A28DAE0FBF2FB11D5D968C91928D65
:100370009F5F9F73928F90E008958FEF9FEF089596
:10038000FC01918D828D981731F0828DE80FF11D5F
:10039000858D90E008958FEF9FEF0895FC01918D7A
:1003A000228D892F90E0805C9F4F821B91098F7373
:1003B0009927089586E194E0F1DF21E0892B09F483
:1003C00020E0822F08958CE693E0E8DF21E0892B7E
:1003D00009F420E0822F0895FC01A48DA80FB92F05
:1003E000B11DA35ABF4F2C91848D90E001968F735D
:1003F0009927848FA689B7892C93A089B1898C917C
:10040000837080648C93938D848D981306C00288CA
:10041000F389E02D80818F7D80830895EF92FF9294
:100420000F931F93CF93DF93EC0181E0888F9B8D17
:100430008C8D98131AC0E889F989808185FF15C0D1
:100440009FB7F894EE89FF896083E889F9898081F4
:100450008370806480839FBF81E090E0DF91CF91C3
:100460001F910F91FF90EF900895F62E0B8D10E0E5
:100470000F5F1F4F0F731127E02E8C8D8E110BC055
:100480000FB607FCFACFE889F989808185FFF5CF9F
:10049000CE01A2DFF2CFEB8DEC0FFD2FF11DE35A61
:1004A000FF4FF0829FB7F8940B8FEA89FB89808118
:1004B0008062D0CFCF93DF93EC01888D8823B1F099
:1004C000AA89BB89E889F9898C9185FD03C080815F
:1004D00086FD0CC00FB607FCF7CF8C9185FFF2CFDD
:1004E000808185FFEDCFCE0177DFEACFDF91CF911D
:1004F000089580E090E0892B21F065DF81110E9452
:10050000000080E090E0892B21F054DF81110E94EF
:10051000000080E090E0892B49F080E090E0892B9A
:1005200029F00E94000081110E94000080E090E00C
:10053000892B49F080E090E0892B29F00E9400008F
:1005400081110C94000008958150823108F05AC046
:10055000E82FF0E08827E055FD4F8F4F0C942615CB
:10056000D002D402C202C802CC020203D702DD02CA
:10057000E102E702EB02EF02F502F9020203FD02DB
:1005800003030703809180008F7780938000089594
:10059000809180008F7DF9CF80918000877FF5CF9B
:1005A00084B58F7784BD089584B58F7DFBCF80910E
:1005B000B0008F778093B00008958091B0008F7D58
:1005C000F9CF809190008F7780939000089580916B
:1005D00090008F7DF9CF80919000877FF5CF80913B
:1005E000A0008F778093A00008958091A0008F7D58
:1005F000F9CF8091A000877FF5CF809120018F7780
:10060000809320010895809120018F7DF9CF809102
:100610002001877FF5CFCF93DF93282F30E0F901BA
:10062000E85EFE4F8491F901E858FE4FD491F9013C
:10063000E254FE4FC491CC2399F0811185DFEC2F59
:10064000F0E0EE0FFF1FE250FF4FA591B491EC9147
:10065000ED2381E090E009F480E0DF91CF910895EF
:1006600080E090E0FACF1F93CF93DF93282F30E004
:10067000F901E85EFE4F8491F901E858FE4FD491EC
:10068000F901E254FE4FC491CC23A1F0162F811141
:100690005BDFEC2FF0E0EE0FFF1FEC51FF4FA59159
:1006A000B4918FB7F894EC91111108C0D095DE2366
:1006B000DC938FBFDF91CF911F910895DE2BF8CF90
:1006C000CF93DF9390E0FC01E858FE4F24918254D1
:1006D0009E4FFC0184918823C9F090E0880F991FF8
:1006E000FC01E25AFE4FA591B491FC01EC51FF4F81
:1006F000C591D49161110DC09FB7F8948C9120954C
:1007000082238C938881282328839FBFDF91CF91F8
:100710000895623051F49FB7F8943C91822F8095F0
:1007200083238C93E8812E2BEFCF8FB7F894EC9135
:100730002E2B2C938FBFEACF2FB7F89460916303D1
:100740007091640380916503909166032FBF0895B3
:1007500020911403260F3327331F21323105ECF487
:1007600020913803FC0190E080E0243069F082E0C1
:100770000895A09114032191AC014C505D4FA40F3A
:10078000B52FB11D2C930196861798F38091140311
:10079000680F6093140380E0089581E00895089540
:1007A0008FEF9FEF08958FEF9FEF08958091ED02F7
:1007B00090E09195819591090895CF93DF93CB01B6
:1007C000EA01642FC5DFCE01DF91CF910895CF9369
:1007D000DF931F92CDB7DEB7698361E0CE0101964A
:1007E000B7DF81E090E00F90DF91CF91089590E026
:1007F00080E008952091EB023091EC02F9018191A3
:100800009FEB980F9A3140F43093EC022093EB0267
:10081000805E08959F01F2CF803239F4232BD1F707
:10082000F093EC02E093EB0208953093EC022093F6
:10083000EB0208951F93CF93DF93DCDFD0E0C0E09D
:100840001AE090ED980F9A30B0F41C9F90011D9F14
:10085000300D1124E901C80FD11D87FDDA95E0970D
:100860008091EB029091EC0201969093EC028093C0
:10087000EB02C0DFE6CFCE01DF91CF911F9108954B
:100880002F923F924F925F926F927F928F929F92A0
:10089000AF92BF92CF92DF92EF92FF920F931F938E
:1008A000CF93DF9300D01F921F92CDB7DEB77A832C
:1008B00069834B832091E802211112C021E020932B
:1008C000E8021092700021E22093B0002BE0209308
:1008D000B1002AEF2093B3001092B400539A789499
:1008E000109209023324339497FF03C09F773AE0B4
:1008F000332E28E2329E202D112430E03D832C83BC
:100900008217930760F021E09D838C83321207C029
:100910008131974220F080E197E29D838C83832C84
:10092000912CB12CA12C4C805D8056944794712C55
:10093000612C2C813D816901F12CE12CA5019401F0
:1009400060E472E48FE090E00E94B914640D751DBC
:10095000861D971DA70196010E940A15890122E0B4
:10096000222E0F3F110501F1F8F02394E22DF0E063
:10097000EE0FFF1FE85DFD4F2081318150E040E028
:1009800060E072E18AE790E00E940A15C501B401B7
:100990000E94B914640D751D861D971DA70196014F
:1009A0000E940A158901DDCF3AE0331209C08C811B
:1009B0009D8105966AE070E00E94D4147D836C836B
:1009C0008C819D81883E23E0920769F029813A81DC
:1009D000DC010E94AA1428EE33E040E050E00E94BF
:1009E0000A153A832983109270008091B100887FA4
:1009F000282A2092B1000093B3008B81803108F047
:100A00008FE020E130E0281B310902C016950795E0
:100A10002A95E2F70093B40089819A819093EA02C3
:100A20008093E90287B38FEF87BB81E080937000EA
:100A30000F900F900F900F900F90DF91CF911F911B
:100A40000F91FF90EF90DF90CF90BF90AF909F906D
:100A50008F907F906F905F904F903F902F90089570
:100A60008EBD00000DB407FEFDCF8EB508950F9327
:100A70001F93CF93DF93FC01A18DB28D8EEA8C93EF
:100A8000A18DB28D81EC11968C93A18DB28D858D47
:100A900012968C93A18DB28D868D13968C93168DA4
:100AA0001C5F018DC02F828DD82F8C2F801B81174A
:100AB00018F48991D5DFF9CF812F90E0DF91CF91A4
:100AC0001F910F910895CF93DF93EC018881998155
:100AD000009711F00E94CA15198218821D821C828B
:100AE0001B821A82DF91CF910895FC018081918150
:100AF000009711F00C94CA150895FC010190002094
:100B0000E9F73197AF01481B590BBC018CE693E024
:100B1000E7CBCF93DF93F1DFEC018AE492E0EDDFE6
:100B20008C0F9D1FDF91CF910895CF92DF92EF92AE
:100B3000FF920F931F93CF93DF93EC0110E0F12C02
:100B400000E08FE5C82ED12C80E08ADF382F212FDE
:100B50002F3A91EC390759F581E08F8F098D1A8D65
:100B60008F8D882309F44CC0780184E0E80EF11CD5
:100B700080E076DFF80181938F01EE16FF06C1F762
:100B8000E98DFA8D80818D8FF180FE8EC280D380B9
:100B9000EE2ECE2FDF2F10E000E08C2F8E198F1558
:100BA00030F580E05DDF8993080F111DF6CF2E3AF6
:100BB000314C11F41F8ED2CF0430B0F0F3E0FF15AA
:100BC00070F48DE492E0A5DF8FEF9FEFDF91CF917E
:100BD0001F910F91FF90EF90DF90CF900895F60155
:100BE0003197F1F7F39400E00F5F182FADCFC016E7
:100BF000D106F9F080E692E08CDF8DEF9FEFE6CF33
:100C000080E02EDFF801808380E02ADFF801818315
:100C1000E98DFA8D80818D8F11811E8F0E2FCE2F41
:100C2000DF2F8C2F801B811720F480E019DF899340
:100C3000F8CF90E080E0CACFCF93DF93BC018CE681
:100C400093E027DBEC018AE492E057DF8C0F9D1FD5
:100C5000DF91CF910895CF93DF93682F8CE693E0D7
:100C6000DDDBEC018AE492E048DF8C0F9D1FDF9111
:100C7000CF9108954091F9045091FA048417950793
:100C800050F56115710539F19A01281B390B62176E
:100C9000730708F49B01E091F504F091F604421B00
:100CA000530B5093FA044093F904481B590BBC01B1
:100CB000620F731F6E0F7F1F8E0F9F1F0E944817BA
:100CC000E091F504F091F6048091F9049091FA0412
:100CD000E80FF91F108208950F931F93CF93DF93AE
:100CE0008C01EB01FC01808191810097E1F068812A
:100CF000798161157105A9F0428153812C813D8173
:100D00004217530770F00E9441178C819D81F801B2
:100D1000958384831D821C82DF91CF911F910F9157
:100D200008950E94CA1588819981F8019183808372
:100D30008A819B81938382838C819D819583848327
:100D4000198218821B821A82E5CF0F931F93CF93CB
:100D5000DF93EC0188819981009759F02A813B81CA
:100D60002617370730F081E0DF91CF911F910F9167
:100D700008958B016F5F7F4F0E945316009759F0C3
:100D8000998388831B830A832C813D81232B59F708
:100D9000FC011082E8CF80E0E7CFEF92FF920F9343
:100DA0001F93CF93DF93EC017B018A01BA01CDDF62
:100DB00081110AC0CE0187DECE01DF91CF911F9154
:100DC0000F91FF90EF9008951D830C83B7018881E8
:100DD00099810E944117F0CFFB0101900020E9F7B3
:100DE0003197AF01461B570BD8CFCF93DF93EC0160
:100DF000FB018617970741F06081718161157105CC
:100E000039F044815581C9DFCE01DF91CF9108953A
:100E10005ADEFACFFC0111821082138212821582EF
:100E20001482FB0101900020E9F73197AF01461BC6
:100E3000570BB3CFAF92BF92CF92DF92EF92FF9258
:100E40000F931F93CF93DF937C016B018A0182E0A4
:100E5000A82EB12C4230510518F45A0102E010E0DE
:100E60006CE472E0C701D6DFD6011496CD91DC9117
:100E7000AC16BD06D8F40C171D0708F4E801D6011E
:100E8000ED91FC911197EC0FFD1F108110826D9177
:100E90007C916A0D7B1DC7016115710599F09CDF7E
:100EA000F60180819181C80FD91F1883C701DF9196
:100EB000CF911F910F91FF90EF90DF90CF90BF9057
:100EC000AF90089500DEECCF0F931F93CF93DF9385
:100ED0008C01EB016CE472E089EE94E09BDF6CE442
:100EE00072E08FEE94E096DF6CE472E085EF94E0C0
:100EF00091DF1092FB0481E08093FC041092FD04CA
:100F00008093FE0486E194E09093E4048093E304EC
:100F100060E270E085EF94E018DF6CE472E085EF4A
:100F200094E05ADFB80189EE94E05FDFBE018FEEF6
:100F300094E05BDF8091F3049091F404892B29F411
:100F400060E772E08FEE94E047DF84E690E09093F4
:100F50000205809301051092FB0481E08093FC045C
:100F60008093FE0410920305DF91CF911F910F91A2
:100F700008951F93CF93DF9385ED8093BC008091FC
:100F8000F0029091F102A091F202B091F302079663
:100F9000A11DB11D23E0B695A795979587952A9534
:100FA000D1F72091BC0024FD03C0109238034EC03D
:100FB0004091F0025091F1026091F2027091F302BF
:100FC000452B462B472B69F30097A105B10541F04E
:100FD00025E32A95F1F700000197A109B109E1CFB6
:100FE0008091EF02C1E0C093EE02882379F1D091A5
:100FF000B8001091BA008091BC008A7B8093BC003D
:1010000060E084E130DB60E085E12DDB10923803A5
:10101000C0933A031092390361E084E124DB61E07C
:1010200085E121DB8091B9008E7F8093B9008091AA
:10103000B9008D7F8093B90088E48093B80085E47F
:101040008093BC001093BA00D093B800DF91CF9189
:101050001F910895EF92FF920F931F93CF93DF9309
:10106000CDB7DEB7C054D1090FB6F894DEBF0FBEBE
:10107000CDBF8C012EE0269FC001279F900D11242B
:10108000E0910F05F0911005E80FF91F85851F927B
:101090008F9384851F928F9381858F9380858F9303
:1010A00087818F9386818F9385818F9384818F939E
:1010B00083818F9382818F9381818F9380818F939E
:1010C00082E792E09F938F93CE0101967C019F93DC
:1010D0008F930E947117B701C8019CDE0FB6F89478
:1010E000DEBF0FBECDBFC801C05CDF4F0FB6F894A6
:1010F000DEBF0FBECDBFDF91CF911F910F91FF904B
:10110000EF900895FF920F931F93CF93DF93CDB786
:10111000DEB72C970FB6F894DEBF0FBECDBF8C01A3
:101120006CE472E0CE01079675DE70E060E0C80105
:101130009DD8FC018081873691F007E010E0CE0158
:101140000796D3DCC8012C960FB6F894DEBF0FBE0D
:10115000CDBFDF91CF911F910F91FF90089587E64A
:101160007ADDF8018481958161E070E0039708F4ED
:1011700083C0C8017BD8FC018081823609F05FC042
:101180006ADD80910E05882309F453C062E070E0A7
:10119000C8016CD8FC018081813621F45CDD04E05B
:1011A00010E0CDCFF80144815581B801CE01019600
:1011B00041DEBE016F5F7F4FCE0107968DDDCE0110
:1011C000019693DCCE01079637DD10E000E0FF24A6
:1011D000F3948B859C850817190790F4B801CE010C
:1011E000079644D8FC018081082E000C990BC0970B
:1011F0000A9718F00B851C85F12C0F5F1F4FE9CF64
:10120000FF2009F49ACF8F819885009771F00E9492
:10121000321420910E0502E010E02617170611F097
:1012200008F08DCF03E010E08ACF60E070E0CB01E2
:10123000F0CF81ED94E000DD01E010E080CF61E0CF
:1012400070E0C80113D8FC0180818E3609F075CF9B
:1012500002DDF80184819581039709F06ECF62E089
:1012600070E0C80103D8FC018081823609F065CFA7
:10127000F2DC10E000E063CFC8010E943601FC01FF
:101280008081843709F059CFE6DC80916803909122
:101290006903019706E010E0029708F050CF05E0DF
:1012A00010E04DCFCF92DF92EF92FF920F931F93FA
:1012B000CF93DF93CDB7DEB7AD970FB6F894DEBF0F
:1012C0000FBECDBF8730910508F0F9C0FC0188271B
:1012D000E359F64F8F4F0C9426157409FE09040A42
:1012E0002C0A320A530A590A20910E0530E050E0C8
:1012F00040E019A28E010F5D1F4F8AE0C82ED12C4D
:10130000E12CF12CCA01B901A70196010E94E81451
:10131000605DF80162938F0121153105410551058A
:1013200089F7309711F0CF01E8DB8AE492E0E5DB42
:1013300080910E051BA21AA21DA21CA21FA21EA212
:101340004AE0BE016F5F7F4F90E00E945814BE01DB
:101350006F5F7F4FCE0182963FDD69EA72E0CE017A
:10136000019658DDEAA0FBA0E114F10409F442C0A3
:101370000EA11FA101151105A9F08D819E81080FF5
:10138000191FB801CE010196E0DC882399F129816B
:101390003A818D819E81B701820F931F0E94411770
:1013A0001E830D8319A618A61BA61AA61DA61CA689
:1013B000BE016F5F7F4FCE01889617DDCE01889604
:1013C0000E945701CE01889690DBCE0101968DDBFD
:1013D000CE0182968ADBAD960FB6F894DEBF0FBEC3
:1013E000CDBFDF91CF911F910F91FF90EF90DF90D4
:1013F000CF900895CE01019666DBD4CF6CEA72E0FF
:10140000CE01019607DD21C0FB0144815581CE014B
:10141000019610DD89819A81C12CD12C760100972B
:1014200019F00E9432146B01CE0101965EDBB60109
:10143000CE0101960FDECE010196FEDBCE010196B4
:1014400054DBB601CE01019605DECE0101960E9465
:101450005701CE010196BECF81EB92E05ADB61EBE2
:1014600072E0CECF10E000E080910E0580171106EB
:1014700009F00CF4B0CFB801CE010196EBDDCE013E
:101480000196DADBCE01019630DBB801CE01019680
:10149000E1DDCE0101960E945701CE01019625DBC8
:1014A0000F5F1F4FE1CF85EB92E033DB65EB72E01E
:1014B000A7CF88EB92E02DDB68EB72E0A1CF8BEB3E
:1014C00092E027DB6BEB72E09BCF1F920F920FB67F
:1014D0000F9211240BB60F922F933F934F935F936C
:1014E0006F937F938F939F93AF93BF93EF93FF93EC
:1014F00086E194E00E94EC01FF91EF91BF91AF91E2
:101500009F918F917F916F915F914F913F912F911B
:101510000F900BBE0F900FBE0F901F9018951F924B
:101520000F920FB60F9211240BB60F922F938F9339
:101530009F93EF93FF93E0912604F091270480811D
:10154000E0912C04F0912D0482FD1DC090818091CA
:101550002F048F5F8F7320913004821741F0E09148
:101560002F04F0E0EA5EFB4F958F80932F04FF91EC
:10157000EF919F918F912F910F900BBE0F900FBE07
:101580000F901F9018958081F2CF1F920F920FB687
:101590000F9211240BB60F922F933F934F935F93AB
:1015A0006F937F938F939F93AF93BF93EF93FF932B
:1015B0008CE693E00E94EC01FF91EF91BF91AF9117
:1015C0009F918F917F916F915F914F913F912F915B
:1015D0000F900BBE0F900FBE0F901F9018951F928B
:1015E0000F920FB60F9211240BB60F922F938F9379
:1015F0009F93EF93FF93E0917C03F0917D038081B3
:10160000E0918203F091830382FD1DC0908180915F
:1016100085038F5F8F7320918603821741F0E091DD
:101620008503F0E0E459FC4F958F80938503FF918B
:10163000EF919F918F912F910F900BBE0F900FBE46
:101640000F901F9018958081F2CF1F920F920FB6C6
:101650000F9211242F933F938F939F93AF93BF9338
:101660008091630390916403A0916503B091660338
:101670003091620323E0230F2D3758F50196A11D09
:10168000B11D209362038093630390936403A0933E
:101690006503B093660380915E0390915F03A09110
:1016A0006003B09161030196A11DB11D80935E039B
:1016B00090935F03A0936003B0936103BF91AF91D8
:1016C0009F918F913F912F910F900FBE0F901F9080
:1016D000189526E8230F0296A11DB11DD2CF1F92A7
:1016E0000F920FB60F9211240BB60F922F933F93C8
:1016F0004F935F936F937F938F939F93AF93BF931A
:10170000EF93FF938091B900887F803609F44CC035
:1017100008F03FC0883209F4A6C028F5803109F4EA
:101720009AC0C8F4882309F4F6C0883009F493C03D
:10173000FF91EF91BF91AF919F918F917F916F91A9
:101740005F914F913F912F910F900BBE0F900FBE65
:101750000F901F901895883109F485C0803241F7A9
:101760008093370314C0803409F49AC040F4803366
:10177000B9F38833E9F68093370385ECADC0803543
:1017800009F482C0883509F493C0883489F6F1DB06
:10179000CFCF883909F48AC038F5883729F050F45A
:1017A000883611F0803721F683E080933803109259
:1017B000360355C0883809F479C0803919F080386B
:1017C00009F0B6CF80913603803208F06FC0E09107
:1017D000360381E08E0F809336038091BB00F0E0EA
:1017E000EA5EFC4F80833BC0803B39F0D0F4803A06
:1017F00009F477C0883A09F09BCF84E080933803DE
:101800001092150310921403F0E0E0E01995809116
:10181000140381110FC081E0809314031092F4022D
:1018200009C0803C09F4A9CF883C09F4A6CF883BC5
:1018300009F07ECFE091150381E08E0F80931503B0
:10184000F0E0EC50FD4F80818093BB009091150338
:101850008091140329C080915D038093BB0085ECC7
:101860008093BC0065CF90915C0380915B039817D7
:1018700058F5E0915C0381E08E0F80935C03F0E00B
:10188000E55CFC4F8081E9CFE0915C0381E08E0F45
:1018900080935C038091BB00F0E0E55CFC4F8083AB
:1018A00090915C0380915B039817C8F285E8D8CFCC
:1018B000E0915C0381E08E0F80935C038091BB001C
:1018C000F0E0E55CFC4F808380913A0381115FCFAB
:1018D00081E08093390384EA8093BC00109238033E
:1018E00027CF85EC8093BC0010923803809136039B
:1018F000803230F4E0913603F0E0EA5EFC4F108273
:101900006091360370E086E193E0F0E0E0E0199545
:10191000109236030DCF1092370339CF1F920F92DA
:101920000FB60F9211240BB60F924F925F926F92E7
:101930007F928F929F92AF92BF92CF92DF92EF925F
:10194000FF920F931F932F933F934F935F936F9348
:101950007F938F939F93AF93BF93CF93DF93EF9337
:10196000FF93C091E902D091EA02CE0101979093D2
:10197000EA028093E902209749F51092700078946A
:101980008091B100887F83608093B1008AEF80935B
:10199000B3001092B40081E0809309028091EB02C1
:1019A0009091EC02892B91F0709008028091E702EF
:1019B000882379F16091E602662359F170E040E0F6
:1019C00088EE93E00E9440041092E602FF91EF91AE
:1019D000DF91CF91BF91AF919F918F917F916F9147
:1019E0005F914F913F912F911F910F91FF90EF9039
:1019F000DF90CF90BF90AF909F908F907F906F902F
:101A00005F904F900F900BBE0F900FBE0F901F90E6
:101A1000189555245394F0ECAF2EFDE5BF2EAAE0A7
:101A20004A2EB4E06B2E10EDC12E17E0D12E04E04B
:101A3000E02EF12C04EF11E08FE0882E912C0E9413
:101A4000FA032091EB023091EC022F5F3F4F30936D
:101A5000EC022093EB02853609F46FC00CF043C012
:101A6000813609F4AFC004F58C3309F464C08E33B9
:101A700009F45FC0813209F03FC060920802D09241
:101A80000502C0920402F0920702E092060210934F
:101A900003020093020290920102809200021092CF
:101AA000E702E4E07E2ECBCF833609F48EC010E04F
:101AB0000BE0843614F010E002E05CE0759E000D4F
:101AC00011240E94FA03982F977F933209F07FC068
:101AD0008091EB029091EC0201969093EC0280933E
:101AE000EB020F5FEECF8D3609F441C054F4873618
:101AF00051F134F18C3651F11092EC021092EB025C
:101B000065CF823709F448C044F48F36A9F70E94A4
:101B10001A04782E8093080292CF843709F43FC0CC
:101B2000863751F70E941A049093010280930002B5
:101B300086CF739484CF7A9482CF10E004E0BDCF37
:101B400010E005E0BACF10E007E0B7CF0E941A041A
:101B5000BC01909307028093060280910402909149
:101B6000050222D7709303026093020268CF0E949D
:101B7000FA038C3661F41092E7028091EB029091A7
:101B8000EC0201969093EC028093EB0258CF5092B6
:101B9000E7021092E602F1CF11E000E08ECF0E9442
:101BA0001A04BC01C50100D7469EC001479E900D96
:101BB00011249093050280930402609106027091B3
:101BC0000702CFCF10E009E078CF10E0E6CF8D32EA
:101BD00069F48091EB029091EC0201969093EC02F3
:101BE0008093EB0201500E94FA03F1CF8153E09001
:101BF0000202F0900302883050F4E0900402F0906A
:101C000005020E941A04BC01C701CED67B01670100
:101C1000D694C7940E94FA038E3261F48091EB024D
:101C20009091EC0201969093EC028093EB02EC0C05
:101C3000FD1CEECF8091E702882339F0C70196950D
:101C400087958093E602E81AF1084091000211118D
:101C500004C00F3F11F0411107C040E0B70188EE0A
:101C600093E00E944004B2CE013128F010EF100F33
:101C7000103608F01FE5812F6CE08AD6682F54EFEC
:101C8000560390011124210F311D2C30310538F4F9
:101C9000220F331FF901E05FFD4FC081D1818730F2
:101CA000B1F0082E02C0CC0FDD1F0A94E2F782309B
:101CB00038F0CE0105966AE070E076D6CB0102C01E
:101CC000CE019058403108F04FE0B701CACFCE01A5
:101CD00026E0880F991F2A95E1F7029665E070E0EB
:101CE000ECCF85EC94E00E9475058FEB94E00E94A8
:101CF000750589EB94E00E94750583EB94E00E94E2
:101D0000750585EF94E00E9475058FEE94E00E94C2
:101D1000750589EE94E00E9475058DED94E00E94B2
:101D2000750587ED94E00E94750581ED94E00E94B1
:101D300075058BEC94E00E947505809121059091CA
:101D4000220528C7CF93DF93CDB7DEB72C970FB608
:101D5000F894DEBF0FBECDBF109219041092180484
:101D600048EE53E060E070E040931A0450931B0487
:101D700060931C0470931D048CE392E0909317040D
:101D8000809316042DEC30E030932304209322043A
:101D90002CEC30E0309325042093240428EC30E030
:101DA000309327042093260429EC30E03093290453
:101DB000209328042AEC30E030932B0420932A044B
:101DC0002EEC30E030932D0420932C0410922F043D
:101DD00010923004109231041092320410926F036A
:101DE00010926E03409370035093710360937203DB
:101DF0007093730390936D0380936C0385EC90E074
:101E0000909379038093780384EC90E090937B0324
:101E100080937A0380EC90E090937D0380937C0321
:101E200081EC90E090937F0380937E0382EC90E0BE
:101E3000909381038093800386EC90E090938303DA
:101E40008093820310928503109286031092870379
:101E50001092880388E095E0909312058093110515
:101E600090931D0580931C0590931F0580931E057C
:101E700084E091E0F3D590932205809321050496A8
:101E8000909324058093230510920D0510920C0564
:101E900010920B0510920A05109209051092080580
:101EA00081E380930D0460E00E94600310920E04B1
:101EB00088E290E09093120480931104109215042C
:101EC0001092100410920F0480910D040E940B03D5
:101ED00020910E042817190631F481E090E09093C8
:101EE000100480930F0486E38093090410920A047F
:101EF00010920C0410920B0461E00E9433031092C4
:101F00000C0410920B0461E0809109040E946003AC
:101F100061EB72E08BEC94E00E940A076CEA72E0DD
:101F200081ED94E00E940A076BEB72E087ED94E08C
:101F30000E940A0769EC72E08DED94E00E940A07A6
:101F400063EE72E0CE0107960E940A076AE472E02F
:101F5000CE0101960E940A07BE016F5F7F4FCE013E
:101F600007960E946407CE0101960E947505CE0176
:101F700007960E94750561EB72E083EB94E00E9486
:101F80000A076CEA72E089EB94E00E940A076BEBA7
:101F900072E08FEB94E00E940A0769EC72E085EC36
:101FA00094E00E940A072C960FB6F894DEBF0FBE8D
:101FB000CDBFDF91CF910895CF93DF93CDB7DEB73B
:101FC0002C970FB6F894DEBF0FBECDBF789484B5C2
:101FD000826084BD84B5816084BD85B5826085BD25
:101FE00085B5816085BD80916E00816080936E00B3
:101FF00010928100809181008260809381008091A5
:102000008100816080938100809180008160809355
:1020100080008091B10084608093B1008091B00015
:1020200081608093B00080919100826080939100E4
:1020300080919100816080939100809190008160F7
:10204000809390008091A10082608093A100809194
:10205000A10081608093A1008091A00081608093A5
:10206000A000809121018260809321018091210153
:102070008160809321018091200181608093200103
:1020800080917A00846080937A0080917A008260E7
:1020900080937A0080917A00816080937A008091A9
:1020A0007A00806880937A001092C100E0917C03EE
:1020B000F0917D0322E02083E0917803F091790391
:1020C0001082E0917A03F0917B0380E1808310928B
:1020D0008403E0918003F091810396E09083E09186
:1020E0007E03F0917F03808180618083E0917E0395
:1020F000F0917F03808188608083E0917E03F0917E
:102100007F03808180688083E0917E03F0917F036C
:1021100080818F7D808340E855E260E070E04093ED
:10212000E5045093E6046093E7047093E804E091BB
:10213000E304F091E404A089B1892C93A485B585CA
:102140001C92A685B7858FEC8C93108EA489B589D7
:102150009C93A289B3898C9180618C93A289B38965
:102160008C9188608C93A289B3898C9180688C93C0
:102170000288F389E02D80818F7D80838091E30444
:102180009091E404DC01ED91FC910084F185E02D57
:1021900019951816190664F48091E3049091E404EB
:1021A000DC01ED91FC910284F385E02D1995E6CFD9
:1021B0001092FB0481E08093FC048093FE041FB71F
:1021C000F89480916703811127C0E3EFF1E08491D7
:1021D000EDEAF1E09491E82FF0E0EE0FFF1FE25AF4
:1021E000FE4FA591B491EC91E92321F461E085E3E0
:1021F0000E94330361E085E30E9460038CB5806137
:102200008CBD8CB580648CBD61E084E30E9460036A
:1022100061E083E30E946003809167038F5F809396
:1022200067031FBF8DE58CBD81E08DBD0E949C03BF
:102230006B017C015EE0B52E0BE11EE40E949C0365
:102240006C197D098E099F096838734181059105D4
:1022500008F049C010922605B092250588E095E067
:102260000E94370588E095E00E949505892B09F0CA
:102270006FC1809125058F3009F06AC180912105D9
:102280009091220590930905809308058091260579
:1022900087FD5EC181E080932605E0912305F091E2
:1022A000240510828CE08093250588E095E00E944B
:1022B000370588E095E00E949505892BA1F480916F
:1022C00025058D3081F4E0912105F0912205808172
:1022D000918190930B0580930A058281938190935D
:1022E0000D0580930C05E0912305F091240581E014
:1022F0008083E0912305F0912405118282E0809390
:10230000260586E18093250588E095E00E94370543
:1023100088E095E00E9495053324339492E0292EBD
:1023200024E0422E512C66246394712C45E0842EC7
:10233000912C6CE472E0CE0107960E940A0780910E
:10234000FB0481112CC08091FC041092FC041092BB
:10235000FE043092FD04882371F06CE472E085EF96
:1023600094E00E94EC06E2E0F0E0F0930005E093D8
:10237000FF04109203058091E3049091E404DC01D2
:10238000ED91FC910084F185E02D19951816190640
:1023900034F43092FB043092FC043092FE048091BD
:1023A000FB04B12C813009F077C09091FC041092AD
:1023B000FC041092FE048093FD04992331F0E3E0C5
:1023C000F0E0F0930005E093FF04B12C8091E3046A
:1023D0009091E404DC01ED91FC910084F185E02D05
:1023E0001995181619060CF057C08091E3049091C6
:1023F000E404DC01ED91FC910284F385E02D199554
:1024000089831A820091F9041091FA040F5F1F4F1B
:10241000B80185EF94E00E94A506882391F02091F1
:10242000F5043091F6048091F9049091FA04BE010C
:102430006F5F7F4F820F931F24D51093FA04009390
:10244000F9042091F9043091FA044091F304509179
:10245000F4042417350708F47FC08091F5049091A7
:10246000F604009709F478C06091EF047091F004CD
:102470006115710509F470C0241B350B820F931F81
:10248000F7D4892B09F068C02092FB043092FC0439
:102490003092FE04BB24B3948091FB04823009F097
:1024A0003FC08091FC041092FC041092FE04309214
:1024B000FD048823A9F1109200051092FF04809179
:1024C000F9049091FA042091F3043091F4046FEF31
:1024D0007FEF821B930B0E943A06E090ED04F09090
:1024E000EE04E114F104E1F08091F9049091FA0412
:1024F000892B91F0C090F504D090F6046091E90426
:102500007091EA04C601D3D4009731F08C010C1904
:102510001D090F3F100719F5509200054092FF0466
:102520008091FF0490910005039709F04FC08091BE
:102530000305811122C0309203050E949C03609321
:1025400004057093050580930605909307053EC02A
:10255000C8010197F1F772CEBB24B39437CFB8010D
:102560006E0D7F1D90E080E00E943A06012BC1F2C3
:10257000709200056092FF04D3CF0E949C03AB01D0
:10258000BC018091010590910205092E000CAA0B57
:10259000BB0B0091040510910505209106053091B3
:1025A0000705800F911FA21FB31F84179507A60769
:1025B000B70708F0D9C0909200058092FF04E3E0CD
:1025C000E093FB043092FC043092FE04C090FF04C0
:1025D000D090000580911504882309F4CBC00E9497
:1025E0009C032091130430911404621B730B80919F
:1025F0001104909112048617970708F4B9C08091CE
:102600000F049091100490936903809368031092D3
:10261000100510920F0510920E051FEF00E2E091D9
:102620001105F0911205038CF48DE02D1083E091DB
:102630001105F0911205038CF48DE02D118380912A
:10264000110590911205DC015E962C925E975D96C5
:102650000C930E94370580911105909112050E94FC
:102660009505892B99F4E0911105F0911205858D5E
:10267000813209F0B2C0818D928D909310058093C4
:102680000F05868D6EE084D180930E05009168035E
:10269000109169030130110509F0AEC080916A0301
:1026A00081110CC060910A04809109040E943303D7
:1026B00010930C0400930B0430926A03B2E0CB1623
:1026C000D1040CF0B1C01092FB043092FC043092A3
:1026D000FE041A8219821C821B821E821D8265EFF3
:1026E00074E0CE0101960E94F506BE016F5F7F4F38
:1026F000CE0107960E946C06CE0101960E947505D8
:102700001A8219821C821B821E821D82BE01695F91
:102710007F4FCE0101960E94F506CE0101960E94E0
:1027200082088C01CE0101960E9475051A821982D9
:102730001C821B821E821D82BE01695F7F4FCE01FB
:1027400001960E94F506BE016F5F7F4FC8010E948F
:102750005209CE0101960E947505CE0107960E948E
:1027600075050E947902E5CDBB2009F42FCFE5CE97
:102770001092150480910D040E940B035C010091DE
:102780000E0410E0EE24E394F12CA016B10611F033
:10279000F12CE12C80910F0490911004E816F906B9
:1027A00009F431CF8091110490911204892B41F0EA
:1027B0000E949C03709314046093130430921504D8
:1027C000F0921004E0920F0483E090E0A016B106AE
:1027D00009F019CF82E090E016CF833041F4018CEC
:1027E000F28DE02D80818B7F8A3F09F04FCF8BECFB
:1027F00097E00197F1F713CF012B09F05FCF80919C
:102800006A03882309F45ACF61E080910A04811198
:1028100060E0809109040E94330310920C0410922E
:102820000B0410926A034ACFE4E0CE16D1040CF4F4
:1028300094CF1092FB043092FC043092FE0469ECB9
:1028400072E0CE0101960E940A07CE0101960E9415
:102850005701CE0101960E94750585EC94E00E9417
:102860001C067BCF1F93FC0199278827BC01E894A5
:1028700011911032E9F3193010F01E30C8F31B32F9
:1028800049F01D3241F4689405C01CD0610F711DE0
:10289000811D911D119110531A30B8F33EF490959B
:1028A0008095709561957F4F8F4F9F4F1F91089531
:1028B000BB274A3031F4992322F4BDE290958195EB
:1028C0009F4F16C0592F482F372F262F660F771F7F
:1028D000881F991F660F771F881F991F620F731F2C
:1028E000841F951F660F771F881F991F0895BB27A8
:1028F000FB015527AA27880F991FAA1FA41710F0BC
:10290000A41B83955051B9F7A05DAA3308F0A95DC7
:10291000A193009779F7B111B1931192CB0100C047
:10292000DC01FC01672F71917723E1F7329704C036
:102930007C916D9370836291AE17BF07C8F30895C1
:1029400009D0A59F900DB49F900DA49F800D911D5F
:1029500011240895A29FB001B39FC001A39F700DE1
:10296000811D1124911DB29F700D811D1124911D97
:102970000895DB018F939F93E3DFBF91AF91A29FF7
:10298000800D911DA39F900DB29F900D112408956D
:10299000991B79E004C0991F961708F0961B881FB1
:1029A0007A95C9F780950895AA1BBB1B51E107C012
:1029B000AA1FBB1FA617B70710F0A61BB70B881FCF
:1029C000991F5A95A9F780959095BC01CD0108955E
:1029D000A1E21A2EAA1BBB1BFD010DC0AA1FBB1F23
:1029E000EE1FFF1FA217B307E407F50720F0A21B95
:1029F000B30BE40BF50B661F771F881F991F1A9402
:102A000069F760957095809590959B01AC01BD012B
:102A1000CF010895052E97FB16F400940FD057FDB3
:102A200005D0D6DF07FC02D046F408C0509540958B
:102A3000309521953F4F4F4F5F4F0895909580956A
:102A4000709561957F4F8F4F9F4F0895EE0FFF1F39
:102A5000881F8BBF0790F691E02D19940F931F9359
:102A6000CF93DF938230910510F482E090E0E09103
:102A70002A05F0912B0530E020E0B0E0A0E030978F
:102A800099F42115310509F44AC0281B390B24306B
:102A90003105D8F58A819B816115710589F1FB01AA
:102AA00093838283FE0111C0408151810281138191
:102AB00048175907E0F04817590799F4109761F043
:102AC00012960C93129713961C933296CF01DF91B6
:102AD000CF911F910F91089500932A0510932B0514
:102AE000F4CF2115310551F04217530738F0A901F1
:102AF000DB019A01BD01DF01F801C1CFEF01F9CF80
:102B000090932B0580932A05CDCFFE01E20FF31F92
:102B1000819391932250310939832883D7CF209113
:102B2000280530912905232B41F420910C02309186
:102B30000D02309329052093280520910A02309137
:102B40000B022115310541F42DB73EB740910E021D
:102B500050910F02241B350BE0912805F0912905B7
:102B6000E217F307A0F42E1B3F0B2817390778F064
:102B7000AC014E5F5F4F2417350748F04E0F5F1FC3
:102B80005093290540932805819391939FCFF0E0BE
:102B9000E0E09CCFCF93DF930097E9F0FC01329700
:102BA00013821282A0912A05B0912B05ED0130E02D
:102BB00020E01097A1F420813181820F931F209192
:102BC0002805309129052817390709F061C0F093CD
:102BD0002905E0932805DF91CF910895EA01CE17EA
:102BE000DF07E8F54A815B819E0141155105B1F788
:102BF000E901FB83EA8349915991C40FD51FEC1772
:102C0000FD0761F4808191810296840F951FE9018F
:102C100099838883828193819B838A83F0E0E0E0BB
:102C200012968D919C9113970097B9F52D913C9137
:102C30001197CD010296820F931F209128053091A4
:102C400029052817390739F6309751F510922B05C9
:102C500010922A05B0932905A0932805BCCFD383F1
:102C6000C28340815181840F951FC817D90761F431
:102C70004E5F5F4F88819981480F591F5183408370
:102C80008A819B81938382832115310509F0B0CF1E
:102C9000F0932B05E0932A059ECFFD01DC01C0CF08
:102CA00013821282D7CF4F925F926F927F928F9250
:102CB0009F92AF92BF92CF92DF92EF92FF920F93CB
:102CC0001F93CF93DF938C01009791F4CB01DF9199
:102CD000CF911F910F91FF90EF90DF90CF90BF9019
:102CE000AF909F908F907F906F905F904F90B6CEF7
:102CF000FC01E60FF71F9C0122503109E217F30790
:102D000008F4AAC0D901CD91DC911197C617D70755
:102D100018F1C530D10570F0CE01049786179707DA
:102D200048F0C61BD70B2297C193D1936D937C9328
:102D3000CF0130DFC801DF91CF911F910F91FF903C
:102D4000EF90DF90CF90BF90AF909F908F907F904B
:102D50006F905F904F9008955B01AC1ABD0A4C01D3
:102D60008C0E9D1EA0912A05B0912B05512C412C53
:102D7000F12CE12C109731F58091280590912905CF
:102D80008815990509F05CC04616570608F058C02A
:102D900080910A0290910B02009741F48DB79EB783
:102DA00040910E0250910F02841B950BE817F90712
:102DB00008F052C0F0932905E0932805F9017183CA
:102DC0006083B8CF8D919C91119712966C90129759
:102DD00013967C901397A815B90559F56C0142E03C
:102DE000C40ED11CCA14DB0420F1AC014A195B09E2
:102DF000DA011296159780F06282738251834083C4
:102E0000D9016D937C93E114F10471F0D70113960D
:102E1000FC93EE9312978ECF22968C0F9D1FF90193
:102E200091838083F301EFCFF0932B05E0932A0584
:102E300081CF4816590608F42C017D01D3019ACFA1
:102E4000CB010CDE7C01009739F0AE01B80107D050
:102E5000C801A0DE87016ECF10E000E06BCFFB0160
:102E6000DC0102C001900D9241505040D8F7089506
:102E7000FB01DC018D91019080190110D9F3990BB0
:102E80000895FB01DC0101900D920020E1F7089507
:102E9000FB01DC014150504048F001900D920020B0
:102EA000C9F701C01D9241505040E0F70895FB0161
:102EB00051915523A9F0BF01DC014D9145174111F6
:102EC000E1F759F4CD010190002049F04D914015F2
:102ED0004111C9F3FB014111EFCF81E090E001976F
:102EE00008950F931F93CF93DF93CDB7DEB72E973F
:102EF0000FB6F894DEBF0FBECDBF0E891F8986E0E6
:102F00008C831A8309838FEF9FE79E838D83AE01A5
:102F1000465E5F4F688D798DCE01019611D02F816D
:102F20003885020F131FF80110822E960FB6F89401
:102F3000DEBF0FBECDBFDF91CF911F910F910895DE
:102F40002F923F924F925F926F927F928F929F92B9
:102F5000AF92BF92CF92DF92EF92FF920F931F93A7
:102F6000CF93DF9300D000D000D01F921F92CDB737
:102F7000DEB77C013B018A01FC0117821682838146
:102F800081FFD0C1CE0101965C01F7019381F3016D
:102F900093FD859193FF81913F01882309F449C1F5
:102FA000853239F493FD859193FF81913F018532FC
:102FB00021F4B70190E0CFD1E8CF912C212C312C16
:102FC000FFE1F31538F08B3211F190F4803209F102
:102FD000833229F137FC3CC020ED280F2A3050F510
:102FE00036FE20C08AE0989E200D1124922E06C045
:102FF0008D3291F0803371F7689430F8F30193FDCE
:10300000859193FF81913F018111DACF21C06894AE
:1030100031F8689432F8F2CF689433F8EFCF6894BF
:1030200034F8ECCFEAE02E9E200D1124222E689475
:1030300035F8E4CF8E3229F436FCFBC0689436F8BC
:10304000DDCF8C3619F4689437F8D8CF8836B1F2D2
:10305000982F9F7D95549330D8F0833691F1833724
:10306000B1F1833509F05EC02801F2E04F0E511C2A
:10307000F801C080D180692D70E036FC02C06FEF8E
:103080007FEFC60152D14C01689437F882010AC023
:103090000C5F1F4FFFE3F98388248394912C650113
:1030A000E89437F833FE2AC0522C8114910459F564
:1030B000552009F46ACFB70180E290E04CD15A94D0
:1030C000F7CFF801808189830E5F1F4FE5CF28017C
:1030D000F2E04F0E511CF801C080D180692D70E0E4
:1030E00036FC02C06FEF7FEFC6012AD14C0182018E
:1030F000D7CFB70180E290E02ED12A94281419048A
:1031000009F0B8F7D1CFF60137FC859137FE8191F0
:103110006F01B70190E01FD151105A94F1E08F1A5E
:103120009108C3CF843619F0893609F073C0F801CD
:1031300037FE67C060817181828193810C5F1F4F70
:10314000F32DFF763F2E97FF09C0909580957095DF
:1031500061957F4F8F4F9F4F689437F82AE030E09A
:10316000A50129D1C82ECA188C2C432C36FE0CC0C0
:10317000E89440F8C91440F434FE05C032FC03C0A2
:10318000F32DFE7E4F2E892C44FEA6C0FE01EC0DD1
:10319000F11D8081803309F098C0242D297E422EB4
:1031A000842D8870582E43FCA5C040FE9FC09C2CE7
:1031B000821418F42C0C922C981844FEA1C0B7016C
:1031C00080E390E0C8D042FE08C088E790E041FE6E
:1031D00002C088E590E0B701BED0C91408F49CC0D5
:1031E000CA94D12C9FEFC91AD90ACA0CDB1CF6016C
:1031F00082916F01B70190E0AED0AC14BD04B9F775
:1032000057CF60817181072E000C880B990B0E5FE0
:103210001F4F96CFD32CE894D4F82AE030E08537BE
:10322000E1F1232D297FD22E8F36A9F1F0F48835D4
:1032300051F1F701868197812B960FB6F894DEBF86
:103240000FBECDBFDF91CF911F910F91FF90EF90F7
:10325000DF90CF90BF90AF909F908F907F906F90B6
:103260005F904F903F902F900895803749F08837B6
:1032700001F7D4FE02C06894D2F820E130E00DC01E
:103280006894D4F8F6CF34FE03C0822F8660D82E1F
:1032900020E132E002C028E030E0F801D7FE0EC0A5
:1032A00060817181828193810C5F1F4FA50183D062
:1032B000C82ECA183D2CE89437F856CF608171812A
:1032C00090E080E00E5F1F4FF1CF42FC02C083947C
:1032D00067CF8394839464CF842D867809F460CF7C
:1032E000F6CFB70180E290E036D083948214C8F321
:1032F000512C63CF522C5818821408F45ECFF8CFAB
:10330000842D867809F469CF8BE241FE80E247FC88
:103310008DE2B70190E060CFB70180E390E01BD071
:103320009A945BCF8FEF9FEF87CFFC0105906150A0
:1033300070400110D8F7809590958E0F9F1F0895CB
:10334000FC016150704001900110D8F78095909574
:103350008E0F9F1F08950F931F93CF93DF93182F06
:10336000092FEB018B8181FD09C01FEF0FEF812F2A
:10337000902FDF91CF911F910F91089582FF14C07C
:103380002E813F818C819D81281739073CF4E8818B
:10339000F981CF0101969983888310838E819F8163
:1033A00001969F838E83E3CFE885F985812F199558
:1033B000892BA1F3DACFFA01AA27283051F1203165
:1033C00081F1E8946F936E7F6E5F7F4F8F4F9F4FB9
:1033D000AF4FB1E03ED0B4E03CD0670F781F891FFB
:1033E0009A1FA11D680F791F8A1F911DA11D6A0FC9
:1033F000711D811D911DA11D20D009F468943F917C
:103400002AE0269F11243019305D3193DEF6CF017A
:103410000895462F4770405D4193B3E00FD0C9F740
:10342000F6CF462F4F70405D4A3318F0495D31FDAD
:103430004052419302D0A9F7EACFB4E0A695979500
:10344000879577956795BA95C9F7009761057105D6
:1034500008959B01AC010A2E069457954795379520
:103460002795BA95C9F7620F731F841F951FA01D7A
:10347000089511E0C3E0D1E000E005C0802FFE0117
:10348000E5DA2196011DC430D10780E00807B1F7C5
:04349000F894FFCFDE
:103494000F00F401D0070400040100002C05800093
:1034A4009C01B501CF01EA01070226024702690225
:1034B4008E02B502DE020A030000010008002000AB
:1034C4004000800000010004000000000E027001B2
:1034D4009D015A02CE01AC01C0010D0A0065727251
:1034E4006F723A206E6F20726573706F6E73650031
:1034F4006572726F723A20636865636B73756D00F1
:103504000D007369673A2025336420783A20253307
:103514006420793A2025336420773A2025336420C7
:10352400683A2025336420696E643A202533642088
:103534006167653A20253364006E6200656E62300F
:103544000065626900743100743000636F6D6D61F1
:103554006E64206572726F7200636F6D6D616E646C
:1035640065206572726F722070726F636573736920
:063574006E67004000003C
:020000023000CC
:10E000000D9489F10D94B2F10D94B2F10D94B2F129
:10E010000D94B2F10D94B2F10D94B2F10D94B2F1F0
:10E020000D94B2F10D94B2F10D94B2F10D94B2F1E0
:10E030000D94B2F10D94B2F10D94B2F10D94B2F1D0
:10E040000D94B2F10D94B2F10D94B2F10D94B2F1C0
:10E050000D94B2F10D94B2F10D94B2F10D94B2F1B0
:10E060000D94B2F10D94B2F10D94B2F10D94B2F1A0
:10E070000D94B2F10D94B2F10D94B2F10D94B2F190
:10E080000D94B2F10D94B2F10D94B2F10D94B2F180
:10E090000D94B2F10D94B2F10D94B2F10D94B2F170
:10E0A0000D94B2F10D94B2F10D94B2F10D94B2F160
:10E0B0000D94B2F10D94B2F10D94B2F10D94B2F150
:10E0C0000D94B2F10D94B2F10D94B2F10D94B2F140
:10E0D0000D94B2F10D94B2F10D94B2F10D94B2F130
:10E0E0000D94B2F141546D656761323536300041AF
:10E0F000726475696E6F206578706C6F72657220DE
:10E1000073746B3530305632206279204D4C530099
:10E11000426F6F746C6F616465723E004875683F52
:10E1200000436F6D70696C6564206F6E203D200048
:10E130004350552054797065202020203D20005FF9
:10E140005F4156525F415243485F5F3D2000415658
:10E1500052204C696243205665723D20004743437C
:10E160002056657273696F6E203D20004350552024
:10E1700049442020202020203D20004C6F7720663D
:10E18000757365202020203D20004869676820665F
:10E190007573652020203D200045787420667573D6
:10E1A00065202020203D20004C6F636B2066757336
:10E1B000652020203D20004D617220203720323024
:10E1C000313300312E362E3800342E332E350056A2
:10E1D00023202020414444522020206F7020636F70
:10E1E00064652020202020696E73747275637469E1
:10E1F0006F6E2061646472202020496E74657272B3
:10E20000757074006E6F20766563746F7200726A49
:10E210006D702020006A6D70200057686174207056
:10E220006F72743A00506F7274206E6F7420737541
:10E2300070706F72746564004D7573742062652030
:10E2400061206C6574746572002000577269747483
:10E25000696E672045450052656164696E672045B7
:10E26000450045452065727220636E743D00504F35
:10E27000525400303D5A65726F2061646472003FF1
:10E280003D43505520737461747300403D454550C3
:10E29000524F4D207465737400423D426C696E6B41
:10E2A000204C454400453D44756D70204545505215
:10E2B0004F4D00463D44756D7020464C415348001B
:10E2C000483D48656C70004C3D4C69737420492F83
:10E2D0004F20506F72747300513D51756974005234
:10E2E0003D44756D702052414D00563D73686F7707
:10E2F00020696E7465727275707420566563746FF0
:10E30000727300593D506F727420626C696E6B00BD
:10E310002A0011241FBECFEFD1E2DEBFCDBF01E046
:10E320000CBF12E0A0E0B2E0EEE1FDEF03E00BBFB6
:10E3300002C007900D92A030B107D9F712E0A0E01B
:10E34000B2E001C01D92AE30B107E1F70F9460F367
:10E350000D948DFE01E20EBF0FEF0DBF11241FBE05
:10E360000D9460F30D9400F020E030E040ED57E0B4
:10E3700005C0FA013197F1F72F5F3F4F2817390792
:10E38000C0F308959C01260F311DC901A0E0B0E043
:10E390002F5F3F4FABBFFC018791882361F08093D3
:10E3A000C6008091C00086FFFCCF8091C0008064D1
:10E3B0008093C000EACF08958DE08093C6008091DD
:10E3C000C00086FFFCCF8091C00080648093C000B5
:10E3D0008AE08093C6008091C00086FFFCCF8091C8
:10E3E000C00080648093C00008950F94C2F10F9420
:10E3F000DCF10895FC019081992359F09093C600B7
:10E400008091C00086FFFCCF8091C0008064809323
:10E41000C0003196992379F70895282F982F929567
:10E420009F70892F805D8A3308F0895F8093C600D2
:10E430008091C00086FFFCCF8091C00080648093F3
:10E44000C000822F8F70982F905D9A3308F0995FEB
:10E450009093C6008091C00086FFFCCF8091C000E1
:10E4600080648093C00008959C01FB01853691056E
:10E470001CF46330710594F0C90164E670E00F94F8
:10E480002EFE605D7F4F6093C6008091C00086FFC6
:10E49000FCCF8091C00080648093C0002B30310598
:10E4A00014F43297B4F0C90164E670E00F942EFEC4
:10E4B0006AE070E00F942EFE605D7F4F6093C600AF
:10E4C0008091C00086FFFCCF8091C0008064809363
:10E4D000C000C9016AE070E00F942EFEC0968093E0
:10E4E000C6008091C00086FFFCCF8091C000806490
:10E4F0008093C00008951F93182F8EE692EE60E07F
:10E500000F94C2F11093C6008091C00086FFFCCF2B
:10E510008091C00080648093C0000F94DCF11F9153
:10E5200008952F923F924F925F926F927F928F92B7
:10E530009F92AF92BF92CF92DF92EF92FF920F9392
:10E540001F93DF93CF93CDB7DEB762970FB6F894E2
:10E55000DEBF0FBECDBF382E622ECA01DB015C01CB
:10E560006D01772420E2222E2E010894411C511CBB
:10E570008BC081E0A81680E0B80681E0C80680E084
:10E58000D80628F0C601AA27BB270F940DF2BB2797
:10E59000AD2D9C2D8B2D0F940DF28A2D0F940DF225
:10E5A0002092C6008091C00086FFFCCF8091C00001
:10E5B00080648093C0009DE29093C6008091C0006B
:10E5C00086FFFCCF8091C00080648093C0002092C1
:10E5D000C6008091C00086FFFCCF8091C00080649F
:10E5E0008093C00019828601750188249924A1E0D6
:10E5F0003A1651F03A1620F0B2E03B1661F409C029
:10E600000BBFF701779007C0C7010F9477FE782EF4
:10E6100002C0F7017080872D0F940DF22092C60082
:10E620008091C00086FFFCCF8091C0008064809301
:10E63000C000872D8052F401EF70F0708F3520F408
:10E64000E40DF51D708204C0E40DF51D8EE280839B
:10E650000894E11CF11C011D111D0894811C911CE2
:10E6600090E18916910409F0C2CF80E190E0A0E02A
:10E67000B0E0A80EB91ECA1EDB1E198AC2010F9493
:10E68000FAF10F94DCF16A94662009F072CF629679
:10E690000FB6F894DEBF0FBECDBFCF91DF911F91B3
:10E6A0000F91FF90EF90DF90CF90BF90AF909F9031
:10E6B0008F907F906F905F904F903F902F90089534
:10E6C0002F923F924F925F926F927F928F929F9282
:10E6D000AF92BF92CF92DF92EF92FF920F931F9370
:10E6E000DF93CF93CDB7DEB7CD53D1400FB6F894BB
:10E6F000DEBF0FBECDBF01E20EBF0FEF0DBF94B75F
:10E70000F894A89514BE80916000886180936000A1
:10E7100010926000789493FF05C0E0910002F091A0
:10E7200001021995279A2F9A8091C00082608093E8
:10E73000C00080E18093C40088E18093C1000000A4
:10E74000EE24FF24870144E0A42EB12CCC24DD2448
:10E7500024C0C5010197F1F70894E11CF11C011DCB
:10E76000111D21E2E2162EE4F20620E0020720E06D
:10E77000120718F031E0C32ED12CC801B70127ECE5
:10E780003BE140E050E00F9441FE611571058105C9
:10E79000910519F485B1805885B98091C00087FD35
:10E7A00003C0C114D104A9F2A6014F5F5F4FC25E3E
:10E7B000DE4F59834883CE51D140C25EDE4F8881FF
:10E7C0009981CE51D140019711F00D9410FEC05D9A
:10E7D000DE4F19821882C053D14060E0C15DDE4F28
:10E7E0001882CF52D14088249924C35DDE4F19820C
:10E7F0001882CD52D140C05EDE4F188219821A8233
:10E800001B82C052D140CE5CDE4F188219821A8220
:10E810001B82C253D140EE24FF2487010BBFF701B6
:10E8200007911691C45CDE4F19830883CC53D14005
:10E830000D940BFEC25EDE4F28813981CE51D1404E
:10E840002130310509F52091C600C25EDE4F1982E4
:10E850001882CE51D14022C02F5F3F4F4F4F5F4FA4
:10E86000213082E138078AE7480780E0580780F0C6
:10E87000C45CDE4FE881F981CC53D140EF5FFF4F9C
:10E8800019F0EE27FF27099420E030E040E050E047
:10E890008091C00087FFE0CF2091C600C35DDE4FAE
:10E8A00048815981CD52D1404F5F5F4FC35DDE4FEC
:10E8B00059834883CD52D140213209F063C64A3092
:10E8C000510508F05FC60894811C911C53E0851621
:10E8D000910409F059C600E010E018C081E280936D
:10E8E000C6008091C00086FFFCCF8091C00080648C
:10E8F0008093C0002F5F3F4F2931310579F70F9486
:10E90000DCF10F5F1F4F0530110519F020E030E0FA
:10E91000E5CF10920A0210920B0210920C02109294
:10E920000D02109206021092070210920802109235
:10E930000902109202021092030210920402109235
:10E9400005028FEE90EE60E00F94F5F180E191EE1C
:10E9500060E00F94C2F18091C00087FFFCCF9091DE
:10E96000C600903608F09F759032B8F09093C600BC
:10E970008091C00086FFFCCF8091C00080648093AE
:10E98000C000A0E2A093C6008091C00086FFFCCF2B
:10E990008091C00080648093C000983409F4D7C18E
:10E9A0009934B8F4923409F459C1933458F490333B
:10E9B00019F1903308F4E3C59F33A1F1903409F0C5
:10E9C000DEC5BDC0953409F470C1963409F0D7C5D1
:10E9D00098C1923509F42BC2933538F49C3409F46C
:10E9E000F5C1913509F0CBC518C2963509F445C279
:10E9F000993509F0C4C567C483E792EE62E00F94CD
:10EA0000F5F110920602109207021092080210927D
:10EA1000090210920A0210920B0210920C0210923C
:10EA20000D0213C18FE792EE62E00F94F5F18FEEC5
:10EA300090EE60E00F94F5F181E291EE60E00F94CA
:10EA4000C2F187EB91EE60E00F94F5F180E391EE77
:10EA500060E00F94C2F184EE90EE60E00F94F5F167
:10EA60008FE391EE60E00F94C2F186E090E061E008
:10EA700070E00F9434F20F94DCF18DE591EE60E0DC
:10EA80000F94C2F189EC91EE60E00F94F5F18EE401
:10EA900091EE60E00F94C2F183EC91EE60E00F9490
:10EAA000F5F18CE691EE60E00F94C2F18EE10F94E7
:10EAB0000DF288E90F940DF281E00F940DF20F949E
:10EAC000DCF18BE791EE60E00F94C2F119E0E0E039
:10EAD000F0E010935700E4918E2F0F940DF20F94F5
:10EAE000DCF18AE891EE60E00F94C2F1E3E0F0E03F
:10EAF00010935700E4918E2F0F940DF20F94DCF1D8
:10EB000089E991EE60E00F94C2F1E2E0F0E0109349
:10EB10005700E4918E2F0F940DF20F94DCF188EAE8
:10EB200091EE60E00F94C2F1E1E0F0E01093570045
:10EB30001491812F0F940DF20F94DCF107CF8BE825
:10EB400092EE62E00F94F5F18BE492EE60E00F94A8
:10EB5000F5F10F94DCF100E010E019C0C8016F2D51
:10EB60000F947FFEFF2031F489E492EE60E00F9471
:10EB7000C2F10BC0F092C6008091C00086FFFCCFAE
:10EB80008091C00080648093C0000F5F1F4FC80158
:10EB900081519F41A0E0B0E0ABBFFC01F790BAE229
:10EBA000FB1621F0E2E000301E07C1F60F94DCF105
:10EBB0000F94DCF187E592EE60E00F94F5F10F948D
:10EBC000DCF1CC24DD2400E010E01EC0C8010F946D
:10EBD00077FEF82E882331F489E492EE60E00F94FA
:10EBE000C2F10BC08093C6008091C00086FFFCCFAD
:10EBF0008091C00080648093C000FE1419F00894D6
:10EC0000C11CD11C0F5F1F4FC80181519F41A0E063
:10EC1000B0E0ABBFFC01E790FAE2EF1621F022E092
:10EC20000030120799F60F94DCF10F94DCF182E6C4
:10EC300092EE60E00F94C2F1C60161E070E00F94C3
:10EC400034F20F94DCF10F94DCF110920202109276
:10EC50000302109204021092050278CE89E992EE26
:10EC600062E00F94F5F1279A2F9A16C02F9880E052
:10EC700090E0E0EDF7E03197F1F7019684369105E9
:10EC8000C1F72F9A80E090E0E0EDF7E03197F1F7DF
:10EC9000019684369105C1F78091C00087FFE6CFC9
:10ECA0008091C00087FFFCCF64C485EA92EE62E0E9
:10ECB0000F94F5F140910202509103026091040219
:10ECC0007091050281E020E10F9491F2809102029F
:10ECD00090910302A0910402B091050280509F4FD1
:10ECE000AF4FBF4F8093020290930302A0930402A0
:10ECF000B093050280509041A040B04008F426CE69
:10ED0000A4CF83EB92EE62E00F94F5F140910602FE
:10ED100050910702609108027091090280E020E1A1
:10ED20000F9491F28091060290910702A09108023F
:10ED3000B091090280509F4FAF4FBF4F80930602A2
:10ED400090930702A0930802B0930902FFCD80ECD4
:10ED500092EE62E00F94F5F183E792EE60E00F949B
:10ED6000F5F18FE792EE60E00F94F5F18BE892EE0B
:10ED700060E00F94F5F189E992EE60E00F94F5F10F
:10ED800085EA92EE60E00F94F5F183EB92EE60E09D
:10ED90000F94F5F180EC92EE60E00F94F5F187ECC2
:10EDA00092EE60E00F94F5F188ED92EE60E00F9442
:10EDB000F5F18FED92EE60E00F94F5F18AEE92EEB0
:10EDC00060E00F94F5F183E093EEBDCD87EC92EE19
:10EDD00062E00F94F5F181E40F947BF282E40F94EA
:10EDE0007BF283E40F947BF284E40F947BF285E45E
:10EDF0000F947BF286E40F947BF287E40F947BF20E
:10EE000088E40F947BF28AE40F947BF28BE40F94F6
:10EE10007BF28CE40F947BF299CD88ED92EE62E068
:10EE20000F94F5F1772473948824992409C48FED05
:10EE300092EE62E00F94F5F140910A0250910B02BC
:10EE400060910C0270910D0282E020E10F9491F22A
:10EE500080910A0290910B02A0910C02B0910D02D8
:10EE600080509F4FAF4FBF4F80930A0290930B0289
:10EE7000A0930C02B0930D0269CD8AEE92EE62E08F
:10EE80000F94F5F184EE90EE60E00F94F5F18FECC5
:10EE900091EE60E00F94F5F1662477244301CC5D98
:10EEA000DE4F19821882C452D140D401C301B695F5
:10EEB000A79597958795CA5DDE4F88839983AA8326
:10EEC000BB83C652D140CC5DDE4FA881B981C4520C
:10EED000D1401196CC5DDE4FB983A883C452D14096
:10EEE000CD0162E070E00F9434F2B0E2B093C6005E
:10EEF0008091C00086FFFCCF8091C0008064809329
:10EF0000C000EDE2E093C6008091C00086FFFCCF18
:10EF10008091C00080648093C000F0E2F093C6004E
:10EF20008091C00086FFFCCF8091C00080648093F8
:10EF3000C000CA5DDE4FE880F9800A811B81C6529D
:10EF4000D140BB27A12F902F8F2D0F940DF2CA5DBA
:10EF5000DE4F8881C652D1400F940DF2B0E2FB2EF5
:10EF6000F092C6008091C00086FFFCCF8091C00067
:10EF700080648093C0000DE30093C6008091C000C0
:10EF800086FFFCCF8091C00080648093C00010E2B7
:10EF90001093C6008091C00086FFFCCF8091C00016
:10EFA00080648093C0008BBEF3012791C65DDE4F65
:10EFB0002883CA52D140A22EBB24CC24DD2408943D
:10EFC000611C711C811C911C8BBEF3018791282E42
:10EFD0003324442455240894611C711C811C911C09
:10EFE0008BBEF3013791C55DDE4F3883CB52D140E4
:10EFF0000894611C711C811C911C8BBEF30147910C
:10F00000C45DDE4F4883CC52D140ADEFEA2EAFEF66
:10F01000FA2EAFEF0A2FAFEF1A2F6E0C7F1C801E57
:10F02000911E142D032DF22CEE24EA0CFB1C0C1D5A
:10F030001D1D0F940DF220E22093C6008091C000A8
:10F0400086FFFCCF8091C00080648093C000C65DC5
:10F05000DE4F8881CA52D1400F940DF230E23093D6
:10F06000C6008091C00086FFFCCF8091C000806404
:10F070008093C000C45DDE4F8881CC52D1400F9494
:10F080000DF240E24093C6008091C00086FFFCCFA5
:10F090008091C00080648093C000C55DDE4F888190
:10F0A000CB52D1400F940DF250E25093C6008091A4
:10F0B000C00086FFFCCF8091C00080648093C000B8
:10F0C0008FEFE8168FEFF80680E0080780E018075A
:10F0D00031F484E092EE60E00F94C2F1DFC0D80119
:10F0E000C7018070907CA070B0708050904CA040A0
:10F0F000B040D1F52FEF3FE340E050E0E222F322B1
:10F1000004231523CA5DDE4FA880B980CA80DB8046
:10F11000C652D140AE0CBF1CC01ED11EAA0CBB1CD7
:10F12000CC1CDD1C8EE092EE60E00F94C2F1BB2798
:10F13000A12F902F8F2D0F940DF28E2D0F940DF285
:10F1400030E23093C6008091C00086FFFCCF8091F2
:10F15000C00080648093C0004EE34093C60080915D
:10F16000C00086FFFCCF87C08EE09EEFA0E0B0E03D
:10F17000E822F9220A231B239CE0E91694E9F90608
:10F1800090E0090790E0190709F088C0C45DDE4FE0
:10F19000A881CC52D140EA2EFF2400E010E0102FCD
:10F1A0000F2DFE2CEE24C55DDE4FB881CB52D14031
:10F1B000EB0EF11C011D111DD601C501817090706F
:10F1C000A070B070DC0199278827E80EF91E0A1F8D
:10F1D0001B1F20EF30E040E050E0A222B322C42207
:10F1E000D52241E1AA0CBB1CCC1CDD1C4A95D1F7F1
:10F1F000EA0CFB1C0C1D1D1D81E090E0A0E0B0E0BE
:10F20000282239224A225B2235E1220C331C441C7D
:10F21000551C3A95D1F7E20CF31C041D151D57013E
:10F220006801AA0CBB1CCC1CDD1C85E192EE60E0E1
:10F230000F94C2F1C801AA27BB270F940DF2BB2778
:10F24000A12F902F8F2D0F940DF28E2D0F940DF274
:10F2500090E29093C6008091C00086FFFCCF809121
:10F26000C00080648093C000AEE3A093C60080918C
:10F27000C00086FFFCCF8091C00080648093C000F6
:10F28000C601AA27BB270F940DF2BB27AD2D9C2DDD
:10F290008B2D0F940DF28A2D0F940DF20F94DCF14B
:10F2A000CC5DDE4FE881F981C452D140F99709F471
:10F2B0004DCBF4E0EF2EF12C012D112D6E0C7F1CA7
:10F2C000801E911EF2CD83E093EE62E00F94F5F183
:10F2D0008AE192EE60E00F94C2F18091C00087FF56
:10F2E000FCCF1091C6001F751093C6008091C0001E
:10F2F00086FFFCCF8091C00080648093C0000F9493
:10F30000DCF1812F81548A3108F036C1163409F4BA
:10F3100095C0173490F4133409F44EC0143430F40B
:10F320001134F1F0123409F01DC130C0143409F465
:10F3300059C0153409F016C16BC01A3409F4C4C0A1
:10F340001B3438F4173409F48FC0183409F00AC19B
:10F35000A1C01B3409F4D2C01C3409F003C1E8C0B9
:10F360008FEF81B90DC082B1809582B980E090E0C5
:10F37000E0EDF7E03197F1F70196883C9105C1F790
:10F380008091C00087FFEFCF12B8EFC08FEF84B934
:10F390000DC085B1809585B980E090E0E0EDF7E0A3
:10F3A0003197F1F70196883C9105C1F78091C00033
:10F3B00087FFEFCF15B8D9C08FEF87B90DC088B1DF
:10F3C000809588B980E090E0E0EDF7E03197F1F7C3
:10F3D0000196883C9105C1F78091C00087FFEFCF6F
:10F3E00018B8C3C08FEF8AB90DC08BB180958BB9A7
:10F3F00080E090E0E0EDF7E03197F1F70196883C8E
:10F400009105C1F78091C00087FFEFCF1BB8ADC059
:10F410008FEF8DB90DC08EB180958EB980E090E0F0
:10F42000E0EDF7E03197F1F70196883C9105C1F7DF
:10F430008091C00087FFEFCF1EB897C08FEF80BBD1
:10F440000DC081B3809581BB80E090E0E0EDF7E0F6
:10F450003197F1F70196883C9105C1F78091C00082
:10F4600087FFEFCF11BA81C08FEF83BB0DC084B38C
:10F47000809584BB80E090E0E0EDF7E03197F1F714
:10F480000196883C9105C1F78091C00087FFEFCFBE
:10F4900014BA6BC08FEF809301010FC080910201FD
:10F4A00080958093020180E090E0E0EDF7E03197F5
:10F4B000F1F70196883C9105C1F78091C00087FF64
:10F4C000EDCF1092020151C08FEF809304010FC065
:10F4D0008091050180958093050180E090E0E0ED4A
:10F4E000F7E03197F1F70196883C9105C1F78091DB
:10F4F000C00087FFEDCF1092050137C08FEF8093DA
:10F5000007010FC08091080180958093080180E079
:10F5100090E0E0EDF7E03197F1F70196883C910536
:10F52000C1F78091C00087FFEDCF109208011DC088
:10F530008FEF80930A010FC080910B01809580931B
:10F540000B0180E090E0E0EDF7E03197F1F70196F4
:10F55000883C9105C1F78091C00087FFEDCF1092E4
:10F560000B0103C085E292EEEEC98091C00087FFD7
:10F57000FCCF8091C600EAC988E392EEE4C98CE131
:10F5800091EEE1C988249924933011F1943028F444
:10F59000913089F09230B8F408C0953061F195301F
:10F5A000F0F0963009F048C043C02B3109F042C951
:10F5B00091E06BE13FC96227C15DDE4F2883CF52E6
:10F5C000D14092E037C9B22FA0E0622793E032C960
:10F5D000822F90E0A82BB92B622794E02BC92E3004
:10F5E00009F039C3622795E0C05DDE4F19821882A9
:10F5F000C053D1401FC9E1E0F0E0EC0FFD1FC05D3A
:10F60000DE4F08811981C053D140E00FF11F2083E4
:10F610000F5F1F4FC05DDE4F19830883C053D14079
:10F6200062270A171B0709F005C9D80196E002C92D
:10F63000261709F010C303C0973009F0FBC87724E0
:10F640009981933109F412C19431C8F4963009F4C8
:10F65000D8C0973050F4923009F406C1933009F4C1
:10F660006DC0913009F059C253C0913109F477C08F
:10F67000923108F0BBC0903109F04FC2F5C098310B
:10F6800009F487C0993150F4953109F4EFC09531F0
:10F6900008F4C6C1963109F040C2C2C19A3109F4DA
:10F6A0006CC09A3108F491C09B3109F45BC09D3164
:10F6B00009F033C29D81903359F48F81882311F46E
:10F6C0009EE11CC0813011F091E018C098E916C08D
:10F6D000892F807591F0903539F4E0E0F0E089E011
:10F6E0008093570094910AC0983539F4E3E0F0E034
:10F6F00089E080935700949101C090E01A821B82A8
:10F700008D818C831D829E831F8227E030E009C299
:10F710001A8288E08B8381E48C8386E58D8382E581
:10F720008E8389E48F8383E5888780E589878FE5E9
:10F730008A8782E38B872BE030E0F3C18A818139AD
:10F7400041F0823941F0803911F48FE005C080E04A
:10F7500003C082E001C08AE01A828B8344C0772410
:10F76000739482C08D81882311F48EE12CC0813086
:10F7700011F081E028C088E926C01A82E1E0F0E0BB
:10F7800089E08093570084918B831C8224E030E0D1
:10F79000C8C18B81803589F48C81883039F4E2E0EE
:10F7A000F0E089E08093570084910DC0E0E0F0E044
:10F7B00089E080935700849106C0E3E0F0E089E09F
:10F7C0008093570084911A82DFCF8D81836C99E0FA
:10F7D000E1E0F0E0082E90935700E89507B600FCB2
:10F7E000FDCF1A821B8223E030E09BC180EC8A832C
:10F7F000CE5CDE4F188219821A821B82C253D1401E
:10F800008EC18A8190E0A0E0B0E0582F44273327D2
:10F8100022278B8190E0A0E0B0E0DC0199278827C7
:10F82000282B392B4A2B5B2B8D8190E0A0E0B0E098
:10F83000282B392B4A2B5B2B8C8190E0A0E0B0E089
:10F84000BA2FA92F982F8827282B392B4A2B5B2BCF
:10F85000220F331F441F551FC05EDE4F288339839C
:10F860004A835B83C052D1401A8259C13A81C95C34
:10F87000DE4F3883C753D140CA5CDE4F1882C6536F
:10F88000D1408B81C82EDD24CA5CDE4F488159816E
:10F89000C653D140C42AD52A933109F082C0CE5C28
:10F8A000DE4F88819981AA81BB81C253D1408050AB
:10F8B000904CA340B04030F583E0CE5CDE4FE88052
:10F8C000F9800A811B81C253D140F70100935B008C
:10F8D00080935700E89507B600FCFDCFCE5CDE4F65
:10F8E000088119812A813B81C253D14000501F4FAA
:10F8F0002F4F3F4FCE5CDE4F088319832A833B8313
:10F90000C253D140C05EDE4F488159816A817B81FC
:10F91000C052D140DE011B9631E08C9111962C91A2
:10F9200011971296C75CDE4F2883C953D140C85C3B
:10F93000DE4F1882C853D14090E0C85CDE4FE881AA
:10F94000F981C853D1408E2B9F2B0C01FA01609393
:10F950005B0030935700E89511244E5F5F4F6F4F67
:10F960007F4F0EEFE02E0FEFF02ECE0CDF1CC114F8
:10F97000D10499F685E0C05EDE4F088119812A81A5
:10F980003B81C052D140F80120935B008093570027
:10F99000E89507B600FCFDCF81E180935700E8951C
:10F9A00035C0C05EDE4F88819981AA81BB81C0527B
:10F9B000D140B695A795979587957C018601ABE0D8
:10F9C000AA2EB12CAC0EBD1E0BC0D5016D915D01F0
:10F9D000C7010F947FFE0894E11CF11C01501040F8
:10F9E0000115110591F7A60160E070E0440F551F65
:10F9F000661F771FC05EDE4FE880F9800A811B8199
:10FA0000C052D1404E0D5F1D601F711F1A82C05E33
:10FA1000DE4F488359836A837B83C052D1407FC0C5
:10FA2000FA80C55CDE4FF882CB53D140C65CDE4F16
:10FA30001882CA53D1408B81C82EDD24C65CDE4FAC
:10FA400008811981CA53D140C02AD12A1A828981DA
:10FA5000BE016D5F7F4F843121F59601C05EDE4FA0
:10FA6000E880F9800A811B81C052D1400BBFF701A9
:10FA700087919691DB018C9311969C936E5F7F4FDB
:10FA8000D801C7010296A11DB11DC05EDE4F88835B
:10FA90009983AA83BB83C052D14022503040F1F6F3
:10FAA00036C0C05EDE4F288139814A815B81C052F9
:10FAB000D1400894C108D108760100E010E0089414
:10FAC000C11CD11C0894E11CF11C011D111DE20E8A
:10FAD000F31E041F151F21BDBB27A52F942F832FB5
:10FAE00082BD2F5F3F4F4F4F5F4FF89A80B5DB01CC
:10FAF0008D93BD012E153F054007510761F7C05E8C
:10FB0000DE4F288339834A835B83C052D1409601FC
:10FB10002D5F3F4FFB01108204C080EC8A8322E0FE
:10FB200030E08BE18093C6008091C00086FFFCCF5F
:10FB30008091C00080648093C000C15DDE4FF88179
:10FB4000CF52D140F093C6008091C00086FFFCCF19
:10FB50008091C00080648093C000432F3093C60022
:10FB60008091C00086FFFCCF8091C00080648093AC
:10FB7000C000922F2093C6008091C00086FFFCCF6A
:10FB80008091C00080648093C0008EE08093C600A6
:10FB90008091C00086FFFCCF8091C000806480937C
:10FBA000C00065E1C15DDE4FE880CF52D1406E25D7
:10FBB00069276427FE01319610C090819093C6009A
:10FBC0008091C00086FFFCCF31968091C000806498
:10FBD0008093C0006927215030402115310569F715
:10FBE0006093C6008091C00086FFFCCF8091C0006A
:10FBF00080648093C00085B1805885B9772081F4F6
:10FC0000C15DDE4F0881CF52D1400F5FC15DDE4F35
:10FC10000883CF52D14090E0A0E0B0E00D941AF4F8
:10FC200027982F9880E090E020ED37E0F901319798
:10FC3000F1F7019684369105C9F700008091C00064
:10FC40008D7F8093C00081E180935700E895EE2777
:10FC5000FF270994FFCF90E00D941AF497FB092E2B
:10FC600007260AD077FD04D02ED006D000201AF443
:10FC7000709561957F4F0895F6F7909581959F4F08
:10FC80000895A1E21A2EAA1BBB1BFD010DC0AA1FDD
:10FC9000BB1FEE1FFF1FA217B307E407F50720F0F5
:10FCA000A21BB30BE40BF50B661F771F881F991F70
:10FCB0001A9469F760957095809590959B01AC01B9
:10FCC000BD01CF010895AA1BBB1B51E107C0AA1FAC
:10FCD000BB1FA617B70710F0A61BB70B881F991FED
:10FCE0005A95A9F780959095BC01CD010895F99991
:10FCF000FECF92BD81BDF89A992780B50895262F31
:10FD0000F999FECF1FBA92BD81BD20BD0FB6F89400
:0EFD1000FA9AF99A0FBE01960895F894FFCF63
:040000033000E000E9
:00000001FF