:1000000003C1000032C1000030C100002EC1000059
:100010002CC100002AC1000028C1000026C1000038
:1000200024C1000022C1000020C100001EC1000048
:100030001CC100001AC1000018C100000C94360C4D
:1000400014C1000012C1000010C100000EC1000068
:100050000CC100000AC1000008C100000C94CD0AC8
:1000600004C100000C94970A0C946D0AFEC00000B5
:10007000FCC00000FAC00000F8C00000F6C000009C
:10008000F4C00000F2C00000F0C00000EEC00000AC
:100090000C94370A0C940D0AE8C000000C94170B5E
:1000A000E4C00000E2C00000E0C00000DEC00000CC
:1000B000DCC00000DAC00000D8C00000D6C00000DC
:1000C000D4C00000D2C00000D0C00000CEC00000EC
:1000D000CCC00000CAC00000C8C00000C6C00000FC
:1000E000C4C0000000002200250028002B002E00C4
:1000F0003100340002010000050108010B0100007D
:1001000020002300260029002C002F0032000001CF
:10011000000003010601090100000A0B02090C0D91
:100120000E080703040100000000000000000000AA
:1001300000000000000000000000000000000000BF
:10014000000000001211100000000000000000007C
:10015000000000000000000000000000000000009F
:100160002100240027002A002D0030003300010167
:100170000000040107010A010102102020080810F4
:100180002040102040800201020108040201010207
:1001900004081020408080402010080402018004E0
:1001A000020180402010080402010804020101023B
:1001B000040810204080010204081020408005053A
:1001C0000505070508080808020202020A0A0808CD
:1001D00004040404010101010101010103030303FB
:1001E00003030303040707070C0C0C0C0C0C0C0C8A
:1001F0000202020206060606060606060B0B0B0B9B
:100200000B0B0B0B2A0E190E11241FBECFEFD1E2E0
:10021000DEBFCDBF00E00CBF25E0AEE2B3E001C021
:100220001D92A434B207E1F713E0A0E0B2E0E4E3EA
:10023000F3E300E00BBF02C007900D92AE32B107AE
:10024000D9F711E0C3E0D1E000E006C02197010931
:10025000802FFE010E947614C230D10780E008078B
:10026000A9F70E94340F0C948919CACEFC0124818D
:1002700035816217730720F480819181009729F4FA
:100280001092B30383EB93E00895860F971F0895B0
:100290000895DB0114964D915C9115976D917C91B9
:1002A000DC01ED91FC910280F381E02D19940F9314
:1002B0001F93CF93DF938C01CBEFD4E061E075E027
:1002C00088819981E6DFB80188819981E2DF67E062
:1002D00075E088819981DF91CF911F910F91D9CFDE
:1002E000AF92BF92CF92DF92EF92FF920F931F9344
:1002F000CF93DF936C017B018B01040F151FEB0182
:100300005E01AE18BF08C017D10759F06991D60138
:10031000ED91FC910190F081E02DC6011995892B9A
:1003200079F7C501DF91CF911F910F91FF90EF9069
:10033000DF90CF90BF90AF900895FC01538D448D16
:10034000252F30E0842F90E0821B930B541710F080
:10035000CF96089501970895FC01918D828D98178D
:1003600061F0A28DAE0FBF2FB11D5D968C91928D65
:100370009F5F9F73928F90E008958FEF9FEF089596
:10038000FC01918D828D981731F0828DE80FF11D5F
:10039000858D90E008958FEF9FEF0895FC01918D7A
:1003A000228D892F90E0805C9F4F821B91098F7373
:1003B000992708958EE594E0F1DF21E0892B09F477
:1003C00020E0822F089584EB93E0E8DF21E0892B81
:1003D00009F420E0822F0895FC01A48DA80FB92F05
:1003E000B11DA35ABF4F2C91848D90E001968F735D
:1003F0009927848FA689B7892C93A089B1898C917C
:10040000837080648C93938D848D981306C00288CA
:10041000F389E02D80818F7D80830895EF92FF9294
:100420000F931F93CF93DF93EC0181E0888F9B8D17
:100430008C8D98131AC0E889F989808185FF15C0D1
:100440009FB7F894EE89FF896083E889F9898081F4
:100450008370806480839FBF81E090E0DF91CF91C3
:100460001F910F91FF90EF900895F62E0B8D10E0E5
:100470000F5F1F4F0F731127E02E8C8D8E110BC055
:100480000FB607FCFACFE889F989808185FFF5CF9F
:10049000CE01A2DFF2CFEB8DEC0FFD2FF11DE35A61
:1004A000FF4FF0829FB7F8940B8FEA89FB89808118
:1004B0008062D0CFCF93DF93EC01888D8823B1F099
:1004C000AA89BB89E889F9898C9185FD03C080815F
:1004D00086FD0CC00FB607FCF7CF8C9185FFF2CFDD
:1004E000808185FFEDCFCE0177DFEACFDF91CF911D
:1004F000089580E090E0892B21F065DF81110E9452
:10050000000080E090E0892B21F054DF81110E94EF
:10051000000080E090E0892B49F080E090E0892B9A
:1005200029F00E94000081110E94000080E090E00C
:10053000892B49F080E090E0892B29F00E9400008F
:1005400081110C94000008958150823108F05AC046
:10055000E82FF0E08827E055FD4F8F4F0C9476147C
:10056000D002D402C202C802CC020203D702DD02CA
:10057000E102E702EB02EF02F502F9020203FD02DB
:1005800003030703809180008F7780938000089594
:10059000809180008F7DF9CF80918000877FF5CF9B
:1005A00084B58F7784BD089584B58F7DFBCF80910E
:1005B000B0008F778093B00008958091B0008F7D58
:1005C000F9CF809190008F7780939000089580916B
:1005D00090008F7DF9CF80919000877FF5CF80913B
:1005E000A0008F778093A00008958091A0008F7D58
:1005F000F9CF8091A000877FF5CF809120018F7780
:10060000809320010895809120018F7DF9CF809102
:100610002001877FF5CFCF93DF93282F30E0F901BA
:10062000E85EFE4F8491F901E858FE4FD491F9013C
:10063000E254FE4FC491CC2399F0811185DFEC2F59
:10064000F0E0EE0FFF1FE250FF4FA591B491EC9147
:10065000ED2381E090E009F480E0DF91CF910895EF
:1006600080E090E0FACF1F93CF93DF93282F30E004
:10067000F901E85EFE4F8491F901E858FE4FD491EC
:10068000F901E254FE4FC491CC23A1F0162F811141
:100690005BDFEC2FF0E0EE0FFF1FEC51FF4FA59159
:1006A000B4918FB7F894EC91111108C0D095DE2366
:1006B000DC938FBFDF91CF911F910895DE2BF8CF90
:1006C000CF93DF9390E0FC01E858FE4F24918254D1
:1006D0009E4FFC0184918823C9F090E0880F991FF8
:1006E000FC01E25AFE4FA591B491FC01EC51FF4F81
:1006F000C591D49161110DC09FB7F8948C9120954C
:1007000082238C938881282328839FBFDF91CF91F8
:100710000895623051F49FB7F8943C91822F8095F0
:1007200083238C93E8812E2BEFCF8FB7F894EC9135
:100730002E2B2C938FBFEACF2FB7F8946091AB0389
:100740007091AC038091AD039091AE032FBF0895DB
:1007500020915C03260F3327331F21323105ECF43F
:1007600020918003FC0190E080E0243069F082E079
:100770000895A0915C032191AC01445C5C4FA40FEF
:10078000B52FB11D2C930196861798F380915C03C9
:10079000680F60935C0380E0089581E008950895F8
:1007A0008FEF9FEF08958FEF9FEF089580913503AE
:1007B00090E09195819591090895CF93DF93CB01B6
:1007C000EA01642FC5DFCE01DF91CF910895CF9369
:1007D000DF931F92CDB7DEB7698361E0CE0101964A
:1007E000B7DF81E090E00F90DF91CF91089590E026
:1007F00080E008952091330330913403F901819111
:100800009FEB980F9A3140F43093340320933303D5
:10081000805E08959F01F2CF803239F4232BD1F707
:10082000F0933403E093330308953093340320931B
:10083000330308951F93CF93DF93DCDFD0E0C0E054
:100840001AE090ED980F9A30B0F41C9F90011D9F14
:10085000300D1124E901C80FD11D87FDDA95E0970D
:1008600080913303909134030196909334038093E5
:100870003303C0DFE6CFCE01DF91CF911F91089502
:100880002F923F924F925F926F927F928F929F92A0
:10089000AF92BF92CF92DF92EF92FF920F931F938E
:1008A000CF93DF9300D01F921F92CDB7DEB77A832C
:1008B00069834B8320913003211112C021E02093E2
:1008C00030031092700021E22093B0002BE02093BF
:1008D000B1002AEF2093B3001092B400539A789499
:1008E000109209023324339497FF03C09F773AE0B4
:1008F000332E28E2329E202D112430E03D832C83BC
:100900008217930760F021E09D838C83321207C029
:100910008131974220F080E197E29D838C83832C84
:10092000912CB12CA12C4C805D8056944794712C55
:10093000612C2C813D816901F12CE12CA5019401F0
:1009400060E472E48FE090E00E940914640D751D6C
:10095000861D971DA70196010E945A14890122E065
:10096000222E0F3F110501F1F8F02394E22DF0E063
:10097000EE0FFF1FE85DFD4F2081318150E040E028
:1009800060E072E18AE790E00E945A14C501B40168
:100990000E940914640D751D861D971DA7019601FF
:1009A0000E945A148901DDCF3AE0331209C08C81CC
:1009B0009D8105966AE070E00E9424147D836C831B
:1009C0008C819D81883E23E0920769F029813A81DC
:1009D000DC010E94FA1328EE33E040E050E00E9470
:1009E0005A143A832983109270008091B100887F55
:1009F000282A2092B1000093B3008B81803108F047
:100A00008FE020E130E0281B310902C016950795E0
:100A10002A95E2F70093B40089819A81909332037A
:100A20008093310387B38FEF87BB81E080937000A1
:100A30000F900F900F900F900F90DF91CF911F911B
:100A40000F91FF90EF90DF90CF90BF90AF909F906D
:100A50008F907F906F905F904F903F902F90089570
:100A60008EBD00000DB407FEFDCF8EB508950F9327
:100A70001F93CF93DF93FC01A18DB28D8EEA8C93EF
:100A8000A18DB28D81EC11968C93A18DB28D858D47
:100A900012968C93A18DB28D868D13968C93168DA4
:100AA0001C5F018DC02F828DD82F8C2F801B81174A
:100AB00018F48991D5DFF9CF812F90E0DF91CF91A4
:100AC0001F910F910895CF93DF93EC018881998155
:100AD000009711F00E941A15198218821D821C823B
:100AE0001B821A82DF91CF910895FC018081918150
:100AF000009711F00C941A150895FC010190002044
:100B0000E9F73197AF01481B590BBC0184EB93E027
:100B1000E7CBCF93DF93F1DFEC018AE492E0EDDFE6
:100B20008C0F9D1FDF91CF910895CF92DF92EF92AE
:100B3000FF920F931F93CF93DF93EC0110E0F12C02
:100B400000E08FE5C82ED12C80E08ADF382F212FDE
:100B50002F3A91EC390759F581E08F8F098D1A8D65
:100B60008F8D882309F44CC0780184E0E80EF11CD5
:100B700080E076DFF80181938F01EE16FF06C1F762
:100B8000E98DFA8D80818D8FF180FE8EC280D380B9
:100B9000EE2ECE2FDF2F10E000E08C2F8E198F1558
:100BA00030F580E05DDF8993080F111DF6CF2E3AF6
:100BB000314C11F41F8ED2CF0430B0F0F3E0FF15AA
:100BC00070F48DE492E0A5DF8FEF9FEFDF91CF917E
:100BD0001F910F91FF90EF90DF90CF900895F60155
:100BE0003197F1F7F39400E00F5F182FADCFC016E7
:100BF000D106F9F080E692E08CDF8DEF9FEFE6CF33
:100C000080E02EDFF801808380E02ADFF801818315
:100C1000E98DFA8D80818D8F11811E8F0E2FCE2F41
:100C2000DF2F8C2F801B811720F480E019DF899340
:100C3000F8CF90E080E0CACFCF93DF93BC0184EB84
:100C400093E027DBEC018AE492E057DF8C0F9D1FD5
:100C5000DF91CF91089540911105509112058417AD
:100C6000950750F56115710539F19A01281B390B6B
:100C70006217730708F49B01E0910D05F0910E05D2
:100C8000421B530B5093120540931105481B590BFF
:100C9000BC01620F731F6E0F7F1F8E0F9F1F0E947C
:100CA0009816E0910D05F0910E0580911105909137
:100CB0001205E80FF91F108208950F931F93CF9329
:100CC000DF938C01EB01FC01808191810097E1F0C1
:100CD0006881798161157105A9F0428153812C8168
:100CE0003D814217530770F00E9491168C819D81BF
:100CF000F801958384831D821C82DF91CF911F911F
:100D00000F9108950E941A1588819981F8019183A5
:100D100080838A819B81938382838C819D8195834B
:100D20008483198218821B821A82E5CF0F931F9346
:100D3000CF93DF93EC0188819981009759F02A8144
:100D40003B812617370730F081E0DF91CF911F916B
:100D50000F9108958B016F5F7F4F0E94A31500973D
:100D600059F0998388831B830A832C813D81232B2F
:100D700059F7FC011082E8CF80E0E7CFEF92FF92B5
:100D80000F931F93CF93DF93EC017B018A01BA018C
:100D9000CDDF81110AC0CE0196DECE01DF91CF9169
:100DA0001F910F91FF90EF9008951D830C83B70161
:100DB000888199810E949116F0CFFB01019000205B
:100DC000E9F73197AF01461B570BD8CFCF93DF938D
:100DD000EC01FB018617970741F060817181611575
:100DE000710539F044815581C9DFCE01DF91CF9182
:100DF000089569DEFACFFC011182108213821282FB
:100E000015821482FB0101900020E9F73197AF01B0
:100E1000461B570BB3CF0F931F93CF93DF938C01D8
:100E2000EB016CE472E081E095E0E5DF6CE472E0F8
:100E300087E095E0E0DF6CE472E08DE095E0DBDFD9
:100E40001092130581E0809314051092150580938C
:100E500016058EE594E09093FC048093FB0460E219
:100E600070E08DE095E062DF6CE472E08DE095E08B
:100E7000A4DFB80181E095E0A9DFBE0187E095E03D
:100E8000A5DF80910B0590910C05892B29F460E773
:100E900072E087E095E091DF84E690E090931A0598
:100EA000809319051092130581E0809314058093B7
:100EB000160510921B05DF91CF911F910F91089598
:100EC0001F93CF93DF9385ED8093BC00809138030F
:100ED00090913903A0913A03B0913B030796A11D6D
:100EE000B11D23E0B695A795979587952A95D1F7DB
:100EF0002091BC0024FD03C0109280034EC040919D
:100F000038035091390360913A0370913B03452BAC
:100F1000462B472B69F30097A105B10541F025E366
:100F20002A95F1F700000197A109B109E1CF80915D
:100F30003703C1E0C0933603882379F1D091B8001C
:100F40001091BA008091BC008A7B8093BC0060E065
:100F500084E189DB60E085E186DB10928003C09349
:100F600082031092810361E084E17DDB61E085E131
:100F70007ADB8091B9008E7F8093B9008091B900AF
:100F80008D7F8093B90088E48093B80085E48093D6
:100F9000BC001093BA00D093B800DF91CF911F919D
:100FA0000895EF92FF920F931F93CF93DF93CDB7E6
:100FB000DEB7C054D1090FB6F894DEBF0FBECDBF67
:100FC0008C012EE0269FC001279F900D1124E091F7
:100FD0002705F0912805E80FF91F85851F928F934B
:100FE00084851F928F9381858F9380858F938781CE
:100FF0008F9386818F9385818F9384818F93838153
:101000008F9382818F9381818F9380818F9382E7E9
:1010100092E09F938F93CE0101967C019F938F93D3
:101020000E94C116B701C801E6DE0FB6F894DEBF14
:101030000FBECDBFC801C05CDF4F0FB6F894DEBF56
:101040000FBECDBFDF91CF911F910F91FF90EF9019
:101050000895AF92BF92CF92DF92EF92FF920F93DB
:101060001F93CF93DF93CDB7DEB7E3970FB6F89416
:10107000DEBF0FBECDBF8C016CE472E0CE018E9658
:10108000BADE70E060E0C801F1D8FC0180818736EB
:1010900009F0B4C18CE293E03CDD61E070E0C8018E
:1010A000E5D8FC018081823609F0ECC085ED92E044
:1010B00030DDF80184819581039708F4B2C08091F6
:1010C0002605882309F4D0C062E070E0C801CED8BC
:1010D000FC018081813619F589EA92E01ADD10E081
:1010E00000E0809126058017110609F00CF499C0E4
:1010F000B801CE01019655DFCE010196D8D8CE01B8
:101100000196F3DCB801CE0101964BDFCE010196CA
:1011100093DDCE010196E9DC0F5F1F4FE2CFF801AE
:10112000C480D58092E0A92EB12CF2E0CF16D10474
:1011300020F4560122E0C22ED12C6CE472E0CE01E4
:10114000019659DEF801E480F580AE14BF04D8F4AE
:10115000CE14DF0408F47601F80160817181FB018F
:10116000EE0DFF1DD08010826A0D7B1DCE01019611
:101170006115710569F121DEF80180819181E80E28
:10118000F91EF701D082BE016F5F7F4FCE018E96B0
:1011900094DDCE010196A9DCCE018E964DDD10E0E6
:1011A00000E021E08AA99BA90817190798F4B80163
:1011B000CE018E965BD80F5F1F4FFC018081082EF9
:1011C000000C990BC09721E00A9760F320E0EACF6A
:1011D0007ADCD2CF222309F411C18EA59FA5C12CA0
:1011E000D12C7601009719F00E9482136B01809137
:1011F00026058C151D0449F140F1B601CE0101967A
:10120000D0DECE01019653D8CE0101966EDCB60138
:10121000CE010196C6DECE0101960EDDCE0101960D
:1012200064DCCE018E9661DCE3960FB6F894DEBFE7
:101230000FBECDBFDF91CF911F910F91FF90EF9027
:10124000DF90CF90BF90AF9008956BEA72E0CE012F
:101250000196D1DDCE0101962AD8CE01019645DC5A
:101260008BEA92E056DCDDCF6CEB72E0CE010196AA
:10127000C2DDCE0101961BD8CE01019636DC8CEB87
:1012800092E0F0CF61E070E0C8010E943601FC01FD
:1012900080818E3609F080C081ED92E03ADC809149
:1012A00026051BA21AA21DA21CA21FA21EA24AE072
:1012B000BE016F5F7F4F90E00E94A813BE016F5F79
:1012C0007F4FCE01829679DD64ED72E0CE0101960A
:1012D00092DDEAA0FBA0E114F10409F459C00EA1CB
:1012E0001FA101151105B1F08D819E81080F191FF5
:1012F000B801CE0101961ADD882309F449C029817D
:101300003A818D819E81B701820F931F0E949116B1
:101310001E830D8319A618A61BA61AA61DA61CA619
:10132000BE016F5F7F4FCE01889650DDCE0188965B
:101330000E945701CE018896D8DBCE010196D5DBFD
:10134000CE018296D2DB2091260530E050E040E0CD
:1013500019A28E010F5D1F4F8AE0C82ED12CE12CFF
:10136000F12CCA01B901A70196010E943814605DF1
:10137000F80162938F01211531054105510589F767
:10138000309711F0CF01B9DB8AE492E0B6DB49CFA8
:10139000CE01019698DBBECF61E070E0C8010E94EB
:1013A0003601FC018081843709F03BCF8FEC92E05D
:1013B000B0DB8091B0039091B1030197029778F070
:1013C00067ED72E0CE01019616DDCE0101960E9416
:1013D0005701CE01019689DB8AED92E043CF62EF9F
:1013E00072E0CE01019607DDCE0101960E94570101
:1013F000CE0101967ADB85EF92E034CF62E073E0B4
:10140000CE010196F8DCCE0101960E945701CE0173
:1014100001966BDB82E093E025CF1F920F920FB60F
:101420000F9211240BB60F922F933F934F935F931C
:101430006F937F938F939F93AF93BF93EF93FF939C
:101440008EE594E00E94EC01FF91EF91BF91AF9186
:101450009F918F917F916F915F914F913F912F91CC
:101460000F900BBE0F900FBE0F901F9018951F92FC
:101470000F920FB60F9211240BB60F922F938F93EA
:101480009F93EF93FF93E0916E04F0916F0480813E
:10149000E0917404F091750482FD1DC090818091EB
:1014A00077048F5F8F7320917804821741F0E09169
:1014B0007704F0E0E25AFB4F958F80937704FF9119
:1014C000EF919F918F912F910F900BBE0F900FBEB8
:1014D0000F901F9018958081F2CF1F920F920FB638
:1014E0000F9211240BB60F922F933F934F935F935C
:1014F0006F937F938F939F93AF93BF93EF93FF93DC
:1015000084EB93E00E94EC01FF91EF91BF91AF91CA
:101510009F918F917F916F915F914F913F912F910B
:101520000F900BBE0F900FBE0F901F9018951F923B
:101530000F920FB60F9211240BB60F922F938F9329
:101540009F93EF93FF93E091C403F091C5038081D3
:10155000E091CA03F091CB0382FD1DC09081809180
:10156000CD038F5F8F732091CE03821741F0E091FE
:10157000CD03F0E0EC54FC4F958F8093CD03FF91A9
:10158000EF919F918F912F910F900BBE0F900FBEF7
:101590000F901F9018958081F2CF1F920F920FB677
:1015A0000F9211242F933F938F939F93AF93BF93E9
:1015B0008091AB039091AC03A091AD03B091AE03C9
:1015C0003091AA0323E0230F2D3758F50196A11D72
:1015D000B11D2093AA038093AB039093AC03A09317
:1015E000AD03B093AE038091A6039091A703A091A1
:1015F000A803B091A9030196A11DB11D8093A60374
:101600009093A703A093A803B093A903BF91AF91B0
:101610009F918F913F912F910F900FBE0F901F9030
:10162000189526E8230F0296A11DB11DD2CF1F9257
:101630000F920FB60F9211240BB60F922F933F9378
:101640004F935F936F937F938F939F93AF93BF93CA
:10165000EF93FF938091B900887F803609F44CC0E6
:1016600008F03FC0883209F4A6C028F5803109F49B
:101670009AC0C8F4882309F4F6C0883009F493C0EE
:10168000FF91EF91BF91AF919F918F917F916F915A
:101690005F914F913F912F910F900BBE0F900FBE16
:1016A0000F901F901895883109F485C0803241F75A
:1016B00080937F0314C0803409F49AC040F48033CF
:1016C000B9F38833E9F680937F0385ECADC08035AC
:1016D00009F482C0883509F493C0883489F6F0DBB8
:1016E000CFCF883909F48AC038F5883729F050F40B
:1016F000883611F0803721F683E0809380031092C2
:101700007E0355C0883809F479C0803919F08038D3
:1017100009F0B6CF80917E03803208F06FC0E0916F
:101720007E0381E08E0F80937E038091BB00F0E00A
:10173000E25AFC4F80833BC0803B39F0D0F4803AC2
:1017400009F477C0883A09F09BCF84E08093800346
:1017500010925D0310925C03F0E0E0E01995809137
:101760005C0381110FC081E080935C0310923C0305
:1017700009C0803C09F4A9CF883C09F4A6CF883B76
:1017800009F07ECFE0915D0381E08E0F80935D03D1
:10179000F0E0E45CFC4F80818093BB0090915D039E
:1017A00080915C0329C08091A5038093BB0085ECE8
:1017B0008093BC0065CF9091A4038091A3039817F8
:1017C00058F5E091A40381E08E0F8093A403F0E02C
:1017D000ED57FC4F8081E9CFE091A40381E08E0FAB
:1017E0008093A4038091BB00F0E0ED57FC4F808311
:1017F0009091A4038091A3039817C8F285E8D8CFED
:10180000E091A40381E08E0F8093A4038091BB003C
:10181000F0E0ED57FC4F80838091820381115FCF10
:1018200081E08093810384EA8093BC00109280035E
:1018300027CF85EC8093BC001092800380917E03BB
:10184000803230F4E0917E03F0E0E25AFC4F1082E7
:1018500060917E0370E08EE593E0F0E0E0E01995A2
:1018600010927E030DCF10927F0339CF1F920F92FB
:101870000FB60F9211240BB60F924F925F926F9298
:101880007F928F929F92AF92BF92CF92DF92EF9210
:10189000FF920F931F932F933F934F935F936F93F9
:1018A0007F938F939F93AF93BF93CF93DF93EF93E8
:1018B000FF93C0913103D0913203CE0101979093F1
:1018C000320380933103209749F510927000789489
:1018D0008091B100887F83608093B1008AEF80930C
:1018E000B3001092B40081E0809309028091330329
:1018F00090913403892B91F07090080280912F030E
:10190000882379F160912E03662359F170E040E05D
:1019100088EE93E00E94400410922E03FF91EF9115
:10192000DF91CF91BF91AF919F918F917F916F91F7
:101930005F914F913F912F911F910F91FF90EF90E9
:10194000DF90CF90BF90AF909F908F907F906F90DF
:101950005F904F900F900BBE0F900FBE0F901F9097
:10196000189555245394F0ECAF2EFDE5BF2EAAE058
:101970004A2EB4E06B2E10EDC12E17E0D12E04E0FC
:10198000E02EF12C04EF11E08FE0882E912C0E94C4
:10199000FA0320913303309134032F5F3F4F30938C
:1019A000340320933303853609F46FC00CF043C031
:1019B000813609F4AFC004F58C3309F464C08E336A
:1019C00009F45FC0813209F03FC060920802D092F2
:1019D0000502C0920402F0920702E0920602109300
:1019E0000302009302029092010280920002109280
:1019F0002F03E4E07E2ECBCF833609F48EC010E0B7
:101A00000BE0843614F010E002E05CE0759E000DFF
:101A100011240E94FA03982F977F933209F07FC018
:101A20008091330390913403019690933403809313
:101A300033030F5FEECF8D3609F441C054F487367F
:101A400051F134F18C3651F110923403109233037A
:101A500065CF823709F448C044F48F36A9F70E9455
:101A60001A04782E8093080292CF843709F43FC07D
:101A7000863751F70E941A04909301028093000266
:101A800086CF739484CF7A9482CF10E004E0BDCFE8
:101A900010E005E0BACF10E007E0B7CF0E941A04CB
:101AA000BC019093070280930602809104029091FA
:101AB0000502CAD6709303026093020268CF0E94A7
:101AC000FA038C3661F410922F03809133039091C6
:101AD00034030196909334038093330358CF50928C
:101AE0002F0310922E03F1CF11E000E08ECF0E9461
:101AF0001A04BC01C501A8D6469EC001479E900DA0
:101B00001124909305028093040260910602709163
:101B10000702CFCF10E009E078CF10E0E6CF8D329A
:101B200069F48091330390913403019690933403C8
:101B30008093330301500E94FA03F1CF8153E09068
:101B40000202F0900302883050F4E0900402F0901A
:101B500005020E941A04BC01C70176D67B01670109
:101B6000D694C7940E94FA038E3261F480913303B5
:101B70009091340301969093340380933303EC0CDB
:101B8000FD1CEECF80912F03882339F0C701969575
:101B9000879580932E03E81AF108409100021111F5
:101BA00004C00F3F11F0411107C040E0B70188EEBB
:101BB00093E00E944004B2CE013128F010EF100FE4
:101BC000103608F01FE5812F6CE032D6682F54EFF5
:101BD000560390011124210F311D2C30310538F4AA
:101BE000220F331FF901E05FFD4FC081D1818730A3
:101BF000B1F0082E02C0CC0FDD1F0A94E2F782304C
:101C000038F0CE0105966AE070E01ED6CB0102C026
:101C1000CE019058403108F04FE0B701CACFCE0155
:101C200026E0880F991F2A95E1F7029665E070E09B
:101C3000ECCF8DE095E00E94750587E095E00E946D
:101C4000750581E095E00E947505809139059091B8
:101C50003A05F0C6CF93DF93CDB7DEB72C970FB61A
:101C6000F894DEBF0FBECDBF1092610410926004E5
:101C700048EE53E060E070E04093620450936304E8
:101C800060936404709365048CE392E090935F0426
:101C900080935E042DEC30E030936B0420936A0453
:101CA0002CEC30E030936D0420936C0428EC30E091
:101CB00030936F0420936E0429EC30E0309371046C
:101CC000209370042AEC30E0309373042093720464
:101CD0002EEC30E030937504209374041092770456
:101CE000109278041092790410927A041092B7033B
:101CF0001092B6034093B8035093B9036093BA03AC
:101D00007093BB039093B5038093B40385EC90E08C
:101D10009093C1038093C00384EC90E09093C3033D
:101D20008093C20380EC90E09093C5038093C4033A
:101D300081EC90E09093C7038093C60382EC90E01F
:101D40009093C9038093C80386EC90E09093CB03F3
:101D50008093CA031092CD031092CE031092CF034A
:101D60001092D00380E295E090932A058093290594
:101D7000909335058093340590933705809336050D
:101D800084E091E0BBD590933A05809339050496A1
:101D900090933C0580933B051092250510922405F5
:101DA0001092230510922205109221051092200511
:101DB00081E38093550460E00E9460031092560412
:101DC00088E290E090935A048093590410925D0445
:101DD0001092580410925704809155040E940B03EE
:101DE000209156042817190631F481E090E0909371
:101DF00058048093570486E3809351041092520450
:101E0000109254041092530461E00E943303109224
:101E100054041092530461E0809151040E946003C5
:101E200063E173E0CE0107960E94FB066AE472E06C
:101E3000CE0101960E94FB06BE016F5F7F4FCE016F
:101E400007960E940B07CE0101960E947505CE01F0
:101E500007960E9475052C960FB6F894DEBF0FBE4C
:101E6000CDBFDF91CF910895CF93DF93CDB7DEB78C
:101E70002C970FB6F894DEBF0FBECDBF789484B513
:101E8000826084BD84B5816084BD85B5826085BD76
:101E900085B5816085BD80916E00816080936E0004
:101EA00010928100809181008260809381008091F6
:101EB00081008160809381008091800081608093A7
:101EC00080008091B10084608093B1008091B00067
:101ED00081608093B0008091910082608093910036
:101EE0008091910081608093910080919000816049
:101EF000809390008091A10082608093A1008091E6
:101F0000A10081608093A1008091A00081608093F6
:101F1000A0008091210182608093210180912101A4
:101F20008160809321018091200181608093200154
:101F300080917A00846080937A0080917A00826038
:101F400080937A0080917A00816080937A008091FA
:101F50007A00806880937A001092C100E091C403F7
:101F6000F091C50322E02083E091C003F091C1030A
:101F70001082E091C203F091C30380E1808310924C
:101F8000CC03E091C803F091C90396E09083E091FF
:101F9000C603F091C703808180618083E091C6030E
:101FA000F091C703808188608083E091C603F0913F
:101FB000C703808180688083E091C603F091C703E6
:101FC00080818F7D808340E855E260E070E040933F
:101FD000FD045093FE046093FF0470930005E091AC
:101FE000FB04F091FC04A089B1892C93A485B585EC
:101FF0001C92A685B7858FEC8C93108EA489B58929
:102000009C93A289B3898C9180618C93A289B389B6
:102010008C9188608C93A289B3898C9180688C9311
:102020000288F389E02D80818F7D80838091FB047D
:102030009091FC04DC01ED91FC910084F185E02D90
:1020400019951816190664F48091FB049091FC040C
:10205000DC01ED91FC910284F385E02D1995E6CF2A
:102060001092130581E080931405809316051FB725
:10207000F8948091AF03811127C0E3EFF1E08491E0
:10208000EDEAF1E09491E82FF0E0EE0FFF1FE25A45
:10209000FE4FA591B491EC91E92321F461E085E331
:1020A0000E94330361E085E30E9460038CB5806188
:1020B0008CBD8CB580648CBD61E084E30E946003BC
:1020C00061E083E30E9460038091AF038F5F8093A0
:1020D000AF031FBF8DE58CBD81E08DBD0E949C03C9
:1020E0006B017C015EE0B52E0BE11EE40E949C03B7
:1020F0006C197D098E099F09683873418105910526
:1021000008F049C010923E05B0923D0580E295E08E
:102110000E94370580E295E00E949505892B09F021
:102120006FC180913D058F3009F06AC180913905FA
:1021300090913A05909321058093200580913E056A
:1021400087FD5EC181E080933E05E0913B05F09103
:102150003C0510828CE080933D0580E295E00E9472
:10216000370580E295E00E949505892BA1F48091C6
:102170003D058D3081F4E0913905F0913A0580817B
:10218000918190932305809322058281938190937E
:10219000250580932405E0913B05F0913C0581E005
:1021A0008083E0913B05F0913C05118282E08093B1
:1021B0003E0586E180933D0580E295E00E9437056B
:1021C00080E295E00E9495053324339492E0292E15
:1021D00024E0422E512C66246394712C45E0842E19
:1021E000912C6CE472E0CE0107960E94FB06809170
:1021F000130581112CC080911405109214051092C2
:10220000160530921505882371F06CE472E08DE0BC
:1022100095E00E94DD06E2E0F0E0F0931805E0931F
:10222000170510921B058091FB049091FC04DC01C2
:10223000ED91FC910084F185E02D19951816190691
:1022400034F43092130530921405309216058091C3
:102250001305B12C813009F077C0909114051092CC
:1022600014051092160580931505992331F0E3E0CB
:10227000F0E0F0931805E0931705B12C8091FB0472
:102280009091FC04DC01ED91FC910084F185E02D3E
:102290001995181619060CF057C08091FB049091FF
:1022A000FC04DC01ED91FC910284F385E02D19958D
:1022B00089831A8200911105109112050F5F1F4F3B
:1022C000B8018DE095E00E949606882391F0209158
:1022D0000D0530910E058091110590911205BE01FA
:1022E0006F5F7F4F820F931F1CD5109312050093D1
:1022F0001105209111053091120540910B05509167
:102300000C052417350708F47FC080910D059091C6
:102310000E05009709F478C06091070570910805D3
:102320006115710509F470C0241B350B820F931FD2
:10233000EFD4892B09F068C0209213053092140560
:1023400030921605BB24B39480911305823009F0B6
:102350003FC080911405109214051092160530921A
:1023600015058823A9F11092180510921705809180
:1023700011059091120520910B0530910C056FEF1E
:102380007FEF821B930B0E942B06E0900505F090D7
:102390000605E114F104E1F0809111059091120518
:1023A000892B91F0C0900D05D0900E05609101052C
:1023B00070910205C601CBD4009731F08C010C1945
:1023C0001D090F3F100719F5509218054092170587
:1023D0008091170590911805039709F04FC08091DF
:1023E0001B05811122C030921B050E949C03609343
:1023F0001C0570931D0580931E0590931F053EC01C
:10240000C8010197F1F772CEBB24B39437CFB8015E
:102410006E0D7F1D90E080E00E942B06012BC1F223
:102420007092180560921705D3CF0E949C03AB01F0
:10243000BC018091190590911A05092E000CAA0B78
:10244000BB0B00911C0510911D0520911E053091BC
:102450001F05800F911FA21FB31F84179507A607A2
:10246000B70708F0CFC09092180580921705E3E0F7
:10247000E09313053092140530921605C0901705AD
:10248000D090180580915D04882309F4C1C00E9492
:102490009C0320915B0430915C04621B730B809160
:1024A000590490915A048617970708F4AFC0809199
:1024B0005704909158049093B1038093B003109205
:1024C000280510922705109226051FEF00E2E091E3
:1024D0002905F0912A05038CF48DE02D1083E091FD
:1024E0002905F0912A05038CF48DE02D118380914C
:1024F000290590912A05DC015E962C925E975D96E7
:102500000C930E9437058091290590912A050E941D
:102510009505892B99F4E0912905F0912A05858D7F
:10252000813209F0A8C0818D928D90932805809307
:102530002705868D6EE07CD1809326050091B0033F
:102540001091B1030130110509F0A4C08091B203CC
:1025500081111AC060915204809151040E9433038A
:1025600010935404009353043092B20362EF72E06C
:10257000CE0101960E94FB06CE0101960E945701F2
:10258000CE0101960E947505B2E0CB16D1040CF085
:102590009BC01092130530921405309216051A82D2
:1025A00019821C821B821E821D826DE075E0CE01A5
:1025B00001960E94E606BE016F5F7F4FCE0107962F
:1025C0000E945D06CE0101960E9475051A8219824D
:1025D0001C821B821E821D82BE01695F7F4FCE015D
:1025E00001960E94E606CE0101960E942908CE01BE
:1025F00001960E947505CE0107960E9475050E94FE
:102600007902EFCDBB2009F439CFEFCE10925D04F3
:10261000809155040E940B035C010091560410E068
:10262000EE24E394F12CA016B10611F0F12CE12C6C
:102630008091570490915804E816F90609F43BCFAD
:102640008091590490915A04892B41F00E949C0377
:1026500070935C0460935B0430925D04F0925804C4
:10266000E092570483E090E0A016B10609F023CF72
:1026700082E090E020CF833041F4018CF28DE02D98
:1026800080818B7F8A3F09F059CF8BEC97E00197CF
:10269000F1F71DCF012B09F077CF8091B20388238A
:1026A00009F472CF61E080915204811160E0809161
:1026B00051040E9433031092540410925304109258
:1026C000B20367ED72E054CFE4E0CE16D1040CF40F
:1026D00092CF10921305309214053092160565E1E1
:1026E00073E0CE0101960E94FB06CE0101960E9486
:1026F0005701CE0101960E94750585E193E00E9485
:10270000890579CF1F93FC0199278827BC01E8949C
:1027100011911032E9F3193010F01E30C8F31B325A
:1027200049F01D3241F4689405C01CD0610F711D41
:10273000811D911D119110531A30B8F33EF49095FC
:102740008095709561957F4F8F4F9F4F1F91089592
:10275000BB274A3031F4992322F4BDE2909581954C
:102760009F4F16C0592F482F372F262F660F771FE0
:10277000881F991F660F771F881F991F620F731F8D
:10278000841F951F660F771F881F991F0895BB2709
:10279000FB015527AA27880F991FAA1FA41710F01D
:1027A000A41B83955051B9F7A05DAA3308F0A95D29
:1027B000A193009779F7B111B1931192CB0100C0A9
:1027C000DC01FC01672F71917723E1F7329704C098
:1027D0007C916D9370836291AE17BF07C8F3089523
:1027E00009D0A59F900DB49F900DA49F800D911DC1
:1027F00011240895A29FB001B39FC001A39F700D43
:10280000811D1124911DB29F700D811D1124911DF8
:102810000895DB018F939F93E3DFBF91AF91A29F58
:10282000800D911DA39F900DB29F900D11240895CE
:10283000991B79E004C0991F961708F0961B881F12
:102840007A95C9F780950895AA1BBB1B51E107C073
:10285000AA1FBB1FA617B70710F0A61BB70B881F30
:10286000991F5A95A9F780959095BC01CD010895BF
:10287000A1E21A2EAA1BBB1BFD010DC0AA1FBB1F84
:10288000EE1FFF1FA217B307E407F50720F0A21BF6
:10289000B30BE40BF50B661F771F881F991F1A9463
:1028A00069F760957095809590959B01AC01BD018D
:1028B000CF010895052E97FB16F400940FD057FD15
:1028C00005D0D6DF07FC02D046F408C050954095ED
:1028D000309521953F4F4F4F5F4F089590958095CC
:1028E000709561957F4F8F4F9F4F0895EE0FFF1F9B
:1028F000881F8BBF0790F691E02D19940F931F93BB
:10290000CF93DF938230910510F482E090E0E09164
:102910004205F091430530E020E0B0E0A0E03097C0
:1029200099F42115310509F44AC0281B390B2430CC
:102930003105D8F58A819B816115710589F1FB010B
:1029400093838283FE0111C04081518102811381F2
:1029500048175907E0F04817590799F4109761F0A4
:1029600012960C93129713961C933296CF01DF9117
:10297000CF911F910F910895009342051093430545
:10298000F4CF2115310551F04217530738F0A90152
:10299000DB019A01BD01DF01F801C1CFEF01F9CFE1
:1029A0009093430580934205CDCFFE01E20FF31FC4
:1029B000819391932250310939832883D7CF209175
:1029C000400530914105232B41F420910C023091B8
:1029D0000D02309341052093400520910A02309169
:1029E0000B022115310541F42DB73EB740910E027F
:1029F00050910F02241B350BE0914005F0914105E9
:102A0000E217F307A0F42E1B3F0B2817390778F0C5
:102A1000AC014E5F5F4F2417350748F04E0F5F1F24
:102A20005093410540934005819391939FCFF0E0EF
:102A3000E0E09CCFCF93DF930097E9F0FC01329761
:102A400013821282A0914205B0914305ED0130E05E
:102A500020E01097A1F420813181820F931F2091F3
:102A60004005309141052817390709F061C0F093FE
:102A70004105E0934005DF91CF910895EA01CE171B
:102A8000DF07E8F54A815B819E0141155105B1F7E9
:102A9000E901FB83EA8349915991C40FD51FEC17D3
:102AA000FD0761F4808191810296840F951FE901F1
:102AB00099838883828193819B838A83F0E0E0E01D
:102AC00012968D919C9113970097B9F52D913C9199
:102AD0001197CD010296820F931F209140053091EE
:102AE00041052817390739F6309751F510924305FB
:102AF00010924205B0934105A0934005BCCFD3830B
:102B0000C28340815181840F951FC817D90761F492
:102B10004E5F5F4F88819981480F591F51834083D1
:102B20008A819B81938382832115310509F0B0CF7F
:102B3000F0934305E09342059ECFFD01DC01C0CF39
:102B400013821282D7CF4F925F926F927F928F92B1
:102B50009F92AF92BF92CF92DF92EF92FF920F932C
:102B60001F93CF93DF938C01009791F4CB01DF91FA
:102B7000CF911F910F91FF90EF90DF90CF90BF907A
:102B8000AF909F908F907F906F905F904F90B6CE58
:102B9000FC01E60FF71F9C0122503109E217F307F1
:102BA00008F4AAC0D901CD91DC911197C617D707B7
:102BB00018F1C530D10570F0CE010497861797073C
:102BC00048F0C61BD70B2297C193D1936D937C938A
:102BD000CF0130DFC801DF91CF911F910F91FF909E
:102BE000EF90DF90CF90BF90AF909F908F907F90AD
:102BF0006F905F904F9008955B01AC1ABD0A4C0135
:102C00008C0E9D1EA0914205B0914305512C412C84
:102C1000F12CE12C109731F5809140059091410500
:102C20008815990509F05CC04616570608F058C08B
:102C300080910A0290910B02009741F48DB79EB7E4
:102C400040910E0250910F02841B950BE817F90773
:102C500008F052C0F0934105E0934005F9017183FB
:102C60006083B8CF8D919C91119712966C901297BA
:102C700013967C901397A815B90559F56C0142E09D
:102C8000C40ED11CCA14DB0420F1AC014A195B0943
:102C9000DA011296159780F0628273825183408325
:102CA000D9016D937C93E114F10471F0D70113966F
:102CB000FC93EE9312978ECF22968C0F9D1FF901F5
:102CC00091838083F301EFCFF0934305E0934205B6
:102CD00081CF4816590608F42C017D01D3019ACF03
:102CE000CB010CDE7C01009739F0AE01B80107D0B2
:102CF000C801A0DE87016ECF10E000E06BCFFB01C2
:102D0000DC0102C001900D9241505040D8F7089567
:102D1000FB01DC018D91019080190110D9F3990B11
:102D20000895FB01DC0101900D920020E1F7089568
:102D3000FB01DC014150504048F001900D92002011
:102D4000C9F701C01D9241505040E0F70895FB01C2
:102D500051915523A9F0BF01DC014D914517411157
:102D6000E1F759F4CD010190002049F04D91401553
:102D70004111C9F3FB014111EFCF81E090E00197D0
:102D800008950F931F93CF93DF93CDB7DEB72E97A0
:102D90000FB6F894DEBF0FBECDBF0E891F8986E047
:102DA0008C831A8309838FEF9FE79E838D83AE0107
:102DB000465E5F4F688D798DCE01019611D02F81CF
:102DC0003885020F131FF80110822E960FB6F89463
:102DD000DEBF0FBECDBFDF91CF911F910F91089540
:102DE0002F923F924F925F926F927F928F929F921B
:102DF000AF92BF92CF92DF92EF92FF920F931F9309
:102E0000CF93DF9300D000D000D01F921F92CDB798
:102E1000DEB77C013B018A01FC01178216828381A7
:102E200081FFD0C1CE0101965C01F7019381F301CE
:102E300093FD859193FF81913F01882309F449C156
:102E4000853239F493FD859193FF81913F0185325D
:102E500021F4B70190E0CFD1E8CF912C212C312C77
:102E6000FFE1F31538F08B3211F190F4803209F163
:102E7000833229F137FC3CC020ED280F2A3050F571
:102E800036FE20C08AE0989E200D1124922E06C0A6
:102E90008D3291F0803371F7689430F8F30193FD2F
:102EA000859193FF81913F018111DACF21C0689410
:102EB00031F8689432F8F2CF689433F8EFCF689421
:102EC00034F8ECCFEAE02E9E200D1124222E6894D7
:102ED00035F8E4CF8E3229F436FCFBC0689436F81E
:102EE000DDCF8C3619F4689437F8D8CF8836B1F234
:102EF000982F9F7D95549330D8F0833691F1833786
:102F0000B1F1833509F05EC02801F2E04F0E511C8B
:102F1000F801C080D180692D70E036FC02C06FEFEF
:102F20007FEFC60152D14C01689437F882010AC084
:102F30000C5F1F4FFFE3F98388248394912C650174
:102F4000E89437F833FE2AC0522C8114910459F5C5
:102F5000552009F46ACFB70180E290E04CD15A9431
:102F6000F7CFF801808189830E5F1F4FE5CF2801DD
:102F7000F2E04F0E511CF801C080D180692D70E045
:102F800036FC02C06FEF7FEFC6012AD14C018201EF
:102F9000D7CFB70180E290E02ED12A9428141904EB
:102FA00009F0B8F7D1CFF60137FC859137FE819152
:102FB0006F01B70190E01FD151105A94F1E08F1AC0
:102FC0009108C3CF843619F0893609F073C0F8012F
:102FD00037FE67C060817181828193810C5F1F4FD2
:102FE000F32DFF763F2E97FF09C090958095709541
:102FF00061957F4F8F4F9F4F689437F82AE030E0FC
:10300000A50129D1C82ECA188C2C432C36FE0CC021
:10301000E89440F8C91440F434FE05C032FC03C003
:10302000F32DFE7E4F2E892C44FEA6C0FE01EC0D32
:10303000F11D8081803309F098C0242D297E422E15
:10304000842D8870582E43FCA5C040FE9FC09C2C48
:10305000821418F42C0C922C981844FEA1C0B701CD
:1030600080E390E0C8D042FE08C088E790E041FECF
:1030700002C088E590E0B701BED0C91408F49CC036
:10308000CA94D12C9FEFC91AD90ACA0CDB1CF601CD
:1030900082916F01B70190E0AED0AC14BD04B9F7D6
:1030A00057CF60817181072E000C880B990B0E5F42
:1030B0001F4F96CFD32CE894D4F82AE030E0853720
:1030C000E1F1232D297FD22E8F36A9F1F0F4883536
:1030D00051F1F701868197812B960FB6F894DEBFE8
:1030E0000FBECDBFDF91CF911F910F91FF90EF9059
:1030F000DF90CF90BF90AF909F908F907F906F9018
:103100005F904F903F902F900895803749F0883717
:1031100001F7D4FE02C06894D2F820E130E00DC07F
:103120006894D4F8F6CF34FE03C0822F8660D82E80
:1031300020E132E002C028E030E0F801D7FE0EC006
:1031400060817181828193810C5F1F4FA50183D0C3
:10315000C82ECA183D2CE89437F856CF608171818B
:1031600090E080E00E5F1F4FF1CF42FC02C08394DD
:1031700067CF8394839464CF842D867809F460CFDD
:10318000F6CFB70180E290E036D083948214C8F382
:10319000512C63CF522C5818821408F45ECFF8CF0C
:1031A000842D867809F469CF8BE241FE80E247FCEA
:1031B0008DE2B70190E060CFB70180E390E01BD0D3
:1031C0009A945BCF8FEF9FEF87CFFC010590615002
:1031D00070400110D8F7809590958E0F9F1F08952D
:1031E000FC016150704001900110D8F780959095D6
:1031F0008E0F9F1F08950F931F93CF93DF93182F68
:10320000092FEB018B8181FD09C01FEF0FEF812F8B
:10321000902FDF91CF911F910F91089582FF14C0DD
:103220002E813F818C819D81281739073CF4E881EC
:10323000F981CF0101969983888310838E819F81C4
:1032400001969F838E83E3CFE885F985812F1995B9
:10325000892BA1F3DACFFA01AA27283051F12031C6
:1032600081F1E8946F936E7F6E5F7F4F8F4F9F4F1A
:10327000AF4FB1E03ED0B4E03CD0670F781F891F5C
:103280009A1FA11D680F791F8A1F911DA11D6A0F2A
:10329000711D811D911DA11D20D009F468943F91DD
:1032A0002AE0269F11243019305D3193DEF6CF01DC
:1032B0000895462F4770405D4193B3E00FD0C9F7A2
:1032C000F6CF462F4F70405D4A3318F0495D31FD0F
:1032D0004052419302D0A9F7EACFB4E0A695979562
:1032E000879577956795BA95C9F700976105710538
:1032F00008959B01AC010A2E069457954795379582
:103300002795BA95C9F7620F731F841F951FA01DDB
:10331000089511E0C3E0D1E000E005C0802FFE0178
:10332000E5DA2196011DC430D10780E00807B1F726
:04333000F894FFCF3F
:103334000F00F401D00704000401000044058000DC
:103344009C01B501CF01EA01070226024702690286
:103354008E02B502DE020A0300000100080020000C
:103364004000800000010004000000000E02700113
:103374009D015A02CE01AC01C0010D0A00657272B2
:103384006F723A206E6F20726573706F6E73650092
:103394006572726F723A20636865636B73756D0052
:1033A4000D007369673A2025336420783A20253369
:1033B4006420793A2025336420773A202533642029
:1033C400683A2025336420696E643A2025336420EA
:1033D4006167653A20253364006100426C6F636B5A
:1033E40020696E6578697374616E740041756375E4
:1033F4006E20626C6F636B206578697374616E74A0
:10340400006E75006E6200743000547261696E2043
:1034140070617320656E636F726520617272697684
:103424006500743100547261696E2061727269764C
:103434006500436F6D6D616E64206572726F7220FA
:103444006578004000436F6D6D616E642065727233
:0E3454006F722070726F63657373696E67002C
:00000001FF
