:100000000C9428010C9459010C9459010C94590139
:100010000C9459010C9459010C9459010C945901F8
:100020000C9459010C9459010C9459010C945901E8
:100030000C9459010C9459010C9459010C945901D8
:100040000C9459010C9459010C9459010C945901C8
:100050000C9459010C9459010C9459010C947B0394
:100060000C9459010C9445030C941B030C945901F6
:100070000C9459010C9459010C9459010C94590198
:100080000C9459010C9459010C9459010C94590188
:100090000C9459010C9459010C9459010C94590178
:1000A0000C9459010C9459010C9459010C94590168
:1000B0000C9459010C9459010C9459010C94590158
:1000C0000C9459010C9459010C9459010C94590148
:1000D0000C9459010C9459010C9459010C94590138
:1000E0000C9459010C94DA020C94B9010C94F502A9
:1000F0000C94AB010C945B010C94EF020C948801FE
:100100000C9497010C9407030C94C5030C940B03F7
:100110000C94DE020C94F1010C94BF020C94C40206
:100120000C94EB020C9403030C94D6020C94E202A0
:100130000C94FD020C94E5020C94F9020C94150346
:100140000C943E020C94110300000A0B02090C0DE2
:100150000E0807030401000000000000000000007A
:10016000000000000000000000000000000000008F
:10017000000000001211100000000000000000004C
:10018000000000000000000000000000000000006F
:100190002200250028002B002E003100340002012F
:1001A0000000050108010B010000210024002700C8
:1001B0002A002D0030003300010100000401070176
:1001C0000A010505050507050808080802020202DC
:1001D0000A0A0808040404040101010101010101E3
:1001E0000303030303030303040707070C0C0C0CAE
:1001F0000C0C0C0C02020202060606060606060697
:100200000B0B0B0B0B0B0B0B010210202008081023
:100210002040102040800201020108040201010276
:10022000040810204080804020100804020180044F
:1002300002018040201008040201080402010102AA
:100240000408102040800102040810204080C503EB
:1002500011241FBECFEFD1E2DEBFCDBF00E00CBF47
:1002600022E0A6E1B2E001C01D92A73CB207E1F78F
:1002700012E0A0E0B2E0E8ECFBE000E00BBF02C05F
:1002800007900D92A631B107D9F711E0C8E2D1E08D
:1002900000E006C021970109802FFE010E94DA05C7
:1002A000C732D10780E00807A9F70E944F040C94D9
:1002B000E2050C940000AF92BF92CF92DF92EF92D2
:1002C000FF920F931F93CF93DF936C017B018B0100
:1002D000040F151FEB015E01AE18BF08C017D10750
:1002E00059F06991D601ED91FC910190F081E02DDA
:1002F000C6011995892B79F7C501DF91CF911F911F
:100300000F91FF90EF90DF90CF90BF90AF90089546
:10031000FC01538D448D252F30E0842F90E0821B0B
:10032000930B541710F0CF96089501970895FC0190
:10033000918D828D981761F0A28DAE0FBF2FB11DE8
:100340005D968C91928D9F5F9F73928F90E0089540
:100350008FEF9FEF0895FC01918D828D981731F0FA
:10036000828DE80FF11D858D90E008958FEF9FEF4E
:100370000895FC01918D228D892F90E0805C9F4F24
:10038000821B91098F73992708958DE192E00E9455
:10039000B90121E0892B09F420E0822F0895FC01A6
:1003A000A48DA80FB92FB11DA35ABF4F2C91848DD6
:1003B00090E001968F739927848FA689B7892C9333
:1003C000A089B1898C91837080648C93938D848D86
:1003D000981306C00288F389E02D80818F7D808389
:1003E0000895EF92FF920F931F93CF93DF93EC0149
:1003F00081E0888F9B8D8C8D98131AC0E889F989CC
:10040000808185FF15C09FB7F894EE89FF896083CE
:10041000E889F98980818370806480839FBF81E04F
:1004200090E0DF91CF911F910F91FF90EF90089591
:10043000F62E0B8D10E00F5F1F4F0F731127E02E6C
:100440008C8D8E110CC00FB607FCFACFE889F989A4
:10045000808185FFF5CFCE010E94CF01F1CFEB8DDA
:10046000EC0FFD2FF11DE35AFF4FF0829FB7F89478
:100470000B8FEA89FB8980818062CFCFCF93DF9396
:10048000EC01888D8823B9F0AA89BB89E889F989AC
:100490008C9185FD03C0808186FD0DC00FB607FCE1
:1004A000F7CF8C9185FFF2CF808185FFEDCFCE0114
:1004B0000E94CF01E9CFDF91CF91089580E090E0D5
:1004C000892B29F00E94C50181110E94000080E063
:1004D00090E0892B49F080E090E0892B29F00E9480
:1004E000000081110E94000080E090E0892B49F01B
:1004F00080E090E0892B29F00E94000081110E9489
:10050000000080E090E0892B49F080E090E0892BAA
:1005100029F00E94000081110C9400000895282FFA
:1005200030E0F901E85BFE4F9491F901E85FFD4F7F
:1005300044912E533E4FF9012491222309F435C0F2
:10054000992311F191509231F8F4E92FF0E08827C6
:10055000E355FD4F8F4F0C94DA05DE02E202BF0235
:10056000D602DA02C402E502EB02EF02F502F9025A
:10057000FD0203030703C4020B031103150380915B
:1005800080008F7780938000E22FF0E0EE0FFF1F56
:10059000E257FE4FA591B4918FB7F894EC91611199
:1005A00048C040954E234C938FBF089580918000A2
:1005B0008F7DE8CF80918000877FE4CF84B58F77EF
:1005C00084BDE2CF84B58F7DFBCF8091B0008F7763
:1005D0008093B000D9CF8091B0008F7DF9CF80910A
:1005E00090008F7780939000CFCF809190008F7D87
:1005F000F9CF80919000877FF5CF8091A0008F7711
:100600008093A000C1CF8091A0008F7DF9CF809111
:10061000A000877FF5CF809120018F778093200104
:10062000B3CF809120018F7DF9CF80912001877F0A
:10063000F5CF4E2BB8CF1F920F920FB60F92112409
:100640000BB60F922F933F934F935F936F937F93CC
:100650008F939F93AF93BF93EF93FF938DE192E0BE
:100660000E94CF01FF91EF91BF91AF919F918F9128
:100670007F916F915F914F913F912F910F900BBEA2
:100680000F900FBE0F901F9018951F920F920FB6EC
:100690000F9211240BB60F922F938F939F93EF938A
:1006A000FF93E0912D02F0912E028081E0913302C0
:1006B000F091340282FD1DC09081809136028F5FDF
:1006C0008F7320913702821741F0E0913602F0E0FB
:1006D000E35EFD4F958F80933602FF91EF919F91DE
:1006E0008F912F910F900BBE0F900FBE0F901F9008
:1006F00018958081F2CF1F920F920FB60F9211249E
:100700002F933F938F939F93AF93BF938091BA02A0
:100710009091BB02A091BC02B091BD0230911A022F
:1007200023E0230F2D3758F50196A11DB11D20930D
:100730001A028093BA029093BB02A093BC02B093BA
:10074000BD028091160290911702A0911802B091FB
:1007500019020196A11DB11D8093160290931702F4
:10076000A0931802B0931902BF91AF919F918F91FE
:100770003F912F910F900FBE0F901F90189526E874
:10078000230F0296A11DB11DD2CF1092200210920C
:100790001F0288EE93E0A0E0B0E0809321029093E6
:1007A0002202A0932302B093240284E092E090936B
:1007B0001E0280931D0285EC90E090932A028093A4
:1007C000290284EC90E090932C0280932B0280EC21
:1007D00090E090932E0280932D0281EC90E0909314
:1007E000300280932F0282EC90E09093320280934B
:1007F000310286EC90E090933402809333021092A1
:10080000360210923702109238021092390281E0BB
:100810008093C2029FB7F8944091BA025091BB02F4
:100820006091BC027091BD029FBF4093C302509380
:10083000C4026093C5027093C6029DE09093BE020D
:100840008093BF021092C1021092C00260E08DE05E
:100850000E948F021092C1021092C0028091BE02CB
:1008600090E0FC01E85FFD4F24918E539E4FFC0108
:100870008491882399F090E0880F991FFC01E85536
:10088000FE4FA591B491FC01E257FE4F85919491E2
:100890008FB7F894EC91E22BEC938FBF0895CF9330
:1008A000DF93CDB7DEB7A1970FB6F894DEBF0FBECA
:1008B000CDBF789484B5826084BD84B5816084BDE9
:1008C00085B5826085BD85B5816085BD80916E00EE
:1008D000816080936E00109281008091810082601F
:1008E000809381008091810081608093810080915C
:1008F00080008160809380008091B100846080934B
:10090000B1008091B00081608093B000809191002F
:10091000826080939100809191008160809391002A
:10092000809190008160809390008091A10082600E
:100930008093A1008091A10081608093A1008091AB
:10094000A00081608093A00080912101826080934B
:1009500021018091210181608093210180912001FA
:1009600081608093200180917A00846080937A0076
:1009700080917A00826080937A0080917A00816011
:1009800080937A0080917A00806880937A00109238
:10099000C100E0912D02F0912E0282E08083E0916F
:1009A0002902F0912A021082E0912B02F0912C0290
:1009B00080E1808310923502E0913102F0913202A1
:1009C00086E08083E0912F02F09130028081806187
:1009D0008083E0912F02F0913002808188608083D3
:1009E000E0912F02F0913002808180688083E09155
:1009F0002F02F091300280818F7D808311E09AE098
:100A0000892E912CA12CB12C8091C202882309F44B
:100A100090C02FB7F8948091BA029091BB02A09138
:100A2000BC02B091BD022FBF4091C3025091C402DD
:100A30006091C5027091C602841B950BA60BB70B83
:100A4000883E9340A105B10508F473C01093C2021B
:100A50002FB7F8948091BA029091BB02A091BC028A
:100A6000B091BD022FBF8093C3029093C402A093A4
:100A7000C502B093C6022091C0023091C10280919C
:100A8000BF02232B09F058C0682FEE24E394F12C09
:100A90008091BE020E948F02F092C102E092C002D9
:100AA000C0901B02D0901C020D2C000CEE08FF0819
:100AB000F7FE48C06DE28DE192E00E94F10122272D
:100AC0003327A9012C193D094E095F0919A2CE014E
:100AD00081967C01CA01B901A50194010E94B80563
:100AE000605DF70162937F012115310541055105D4
:100AF00089F7E114F10461F001900020E9F73197E2
:100B0000AF014E195F09B7018DE192E00E945B01D0
:100B100042E050E062E172E08DE192E00E945B0110
:100B200080911B0290911C02019690931C0280936D
:100B30001B020E945E0268CF61E0811160E0F12C2F
:100B4000E12CA6CFA701960119A2CE0181967C01C6
:100B5000CA01B901A50194010E94B805605DF701C1
:100B600062937F01211531054105510589F7C1CFF8
:100B7000A1E21A2EAA1BBB1BFD010DC0AA1FBB1FA1
:100B8000EE1FFF1FA217B307E407F50720F0A21B13
:100B9000B30BE40BF50B661F771F881F991F1A9480
:100BA00069F760957095809590959B01AC01BD01AA
:100BB000CF010895EE0FFF1F881F8BBF0790F6919E
:080BC000E02D1994F894FFCF19
:100BC80000000000F1015B0188013E02B9019701B4
:060BD800AB010D0A000054
:00000001FF
