:1000000003C1000031C100002FC100002DC100005C
:100010002BC1000029C1000027C1000025C100003C
:1000200023C1000021C100001FC100001DC100004C
:100030001BC1000019C1000017C1000015C100005C
:1000400013C1000011C100000FC100000DC100006C
:100050000BC1000009C1000007C100002AC5000053
:1000600003C10000F0C40000C5C40000FDC00000D2
:10007000FBC00000F9C00000F7C00000F5C00000A0
:10008000F3C00000F1C00000EFC00000EDC00000B0
:100090007BC4000050C40000E7C00000E5C00000C1
:1000A000E3C00000E1C00000DFC00000DDC00000D0
:1000B000DBC00000D9C00000D7C00000D5C00000E0
:1000C000D3C00000D1C00000CFC00000CDC00000F0
:1000D000CBC00000C9C00000C7C00000C5C0000000
:1000E000C3C00000000020002300260029002C00CF
:1000F0002F00320000010000030106010901000089
:100100000A0B02090C0D0E08070304010000000091
:1001100000000000000000000000000000000000DF
:10012000000000000000000000001211100000009C
:1001300000000000000000000000000000000000BF
:100140000000000000002200250028002B002E00E7
:100150003100340002010000050108010B0100001C
:100160002100240027002A002D0030003300010167
:100170000000040107010A01050505050705080837
:100180000808020202020A0A080804040404010121
:100190000101010101010303030303030303040736
:1001A00007070C0C0C0C0C0C0C0C020202020606CD
:1001B0000606060606060B0B0B0B0B0B0B0B0102C0
:1001C0001020200808102040102040800201020169
:1001D0000804020101020408102040808040201021
:1001E000080402018004020180402010080402017A
:1001F00008040201010204081020408001020408E2
:1002000010204080A305DC0911241FBECFEFD1E2EE
:10021000DEBFCDBF00E00CBF23E0A4E3B2E001C02D
:100220001D92A23BB207E1F712E0A0E0B2E0E2E8E3
:10023000F8E100E00BBF02C007900D92A433B107B4
:10024000D9F711E0C3E0D1E000E006C02197010931
:10025000802FFE010E94E509C230D10780E0080727
:10026000A9F793D50C94300CCBCEFC01A089B189B1
:1002700082E08C93A485B5851C92A685B7858FEC0A
:100280008C93108EA489B58986E08C93A289B3895A
:100290008C9180618C93A289B3898C9188608C93B6
:1002A000A289B3898C9180688C930288F389E02DB0
:1002B00080818F7D808308950895DB0114964D9190
:1002C0005C9115976D917C91DC01ED91FC91028020
:1002D000F381E02D19940F931F93CF93DF938C013B
:1002E000C9E8D3E06FE873E088819981E6DFB8015F
:1002F00088819981E2DF65E973E088819981DF91E6
:10030000CF911F910F91D9CFAF92BF92CF92DF9231
:10031000EF92FF920F931F93CF93DF936C017B01BA
:100320008B01040F151FEB015E01AE18BF08C0174B
:10033000D10759F06991D601ED91FC910190F081BE
:10034000E02DC6011995892B79F7C501DF91CF9171
:100350001F910F91FF90EF90DF90CF90BF90AF90E3
:100360000895FC01538D448D252F30E0842F90E0BB
:10037000821B930B541710F0CF96089501970895A0
:10038000FC01918D828D981761F0A28DAE0FBF2F69
:10039000B11D5D968C91928D9F5F9F73928F90E0BF
:1003A00008958FEF9FEF0895FC01918D828D98172E
:1003B00031F0828DE80FF11D858D90E008958FEF6B
:1003C0009FEF0895FC01918D228D892F90E0805C34
:1003D0009F4F821B91098F73992708958CEE92E0AD
:1003E000F1DF21E0892B09F420E0822F08958DE3CD
:1003F00092E0E8DF21E0892B09F420E0822F0895C4
:10040000FC01A48DA80FB92FB11DA35ABF4F2C9189
:10041000848D90E001968F739927848FA689B78980
:100420002C93A089B1898C91837080648C93938D77
:10043000848D981306C00288F389E02D80818F7D1A
:1004400080830895EF92FF920F931F93CF93DF93D2
:10045000EC0181E0888F9B8D8C8D98131AC0E88900
:10046000F989808185FF15C09FB7F894EE89FF89CF
:100470006083E889F98980818370806480839FBF6D
:1004800081E090E0DF91CF911F910F91FF90EF906D
:100490000895F62E0B8D10E00F5F1F4F0F7311277D
:1004A000E02E8C8D8E110BC00FB607FCFACFE889B9
:1004B000F989808185FFF5CFCE01A2DFF2CFEB8DE8
:1004C000EC0FFD2FF11DE35AFF4FF0829FB7F89418
:1004D0000B8FEA89FB8980818062D0CFCF93DF9335
:1004E000EC01888D8823B1F0AA89BB89E889F98954
:1004F0008C9185FD03C0808186FD0CC00FB607FC82
:10050000F7CF8C9185FFF2CF808185FFEDCFCE01B3
:1005100077DFEACFDF91CF91089580E090E0892BDB
:1005200021F065DF81110E94000080E090E0892BBE
:1005300021F054DF81110E94000080E090E0892BBF
:1005400049F080E090E0892B29F00E9400008111A1
:100550000E94000080E090E0892B49F080E090E06C
:10056000892B29F00E94000081110C94000008954D
:100570008150823108F059C0E82FF0E08827ED5310
:10058000FD4F8F4F22C7E302E702D502DB02DF02F5
:100590001503EA02F002F402FA02FE020203080363
:1005A0000C031503100316031A03809180008F7744
:1005B000809380000895809180008F7DF9CF809195
:1005C0008000877FF5CF84B58F7784BD089584B58B
:1005D0008F7DFBCF8091B0008F778093B00008951E
:1005E0008091B0008F7DF9CF809190008F778093BC
:1005F00090000895809190008F7DF9CF80919000B8
:10060000877FF5CF8091A0008F778093A000089519
:100610008091A0008F7DF9CF8091A000877FF5CFDA
:10062000809120018F77809320010895809120018F
:100630008F7DF9CF80912001877FF5CFCF93DF9316
:10064000282F30E0F901E250FF4F8491F901E25484
:10065000FE4FD491F901E858FE4FC491CC2399F094
:10066000811186DFEC2FF0E0EE0FFF1FEC51FF4F02
:10067000A591B491EC91ED2381E090E009F480E044
:10068000DF91CF91089580E090E0FACF1F93CF9350
:10069000DF93282F30E0F901E250FF4F8491F901F8
:1006A000E254FE4FD491F901E858FE4FC491CC2397
:1006B000A1F0162F81115CDFEC2FF0E0EE0FFF1F91
:1006C000EC5BFE4FA591B4918FB7F894EC911111AA
:1006D00008C0D095DE23DC938FBFDF91CF911F91AF
:1006E0000895DE2BF8CF2FB7F894609139027091FE
:1006F0003A0280913B0290913C022FBF089542E064
:1007000050E068E172E08DE392E0FECD40919F03FE
:100710005091A0038417950750F56115710539F1C3
:100720009A01281B390B6217730708F49B01E091AB
:100730009B03F0919C03421B530B5093A0034093E7
:100740009F03481B590BBC01620F731F6E0F7F1F65
:100750008E0F9F1F0E94070CE0919B03F0919C035A
:1007600080919F039091A003E80FF91F10820895D4
:10077000FC0180819181009709F0CBC608950F9309
:100780001F93CF93DF93EC0188819981009759F0F3
:100790002A813B812617370730F081E0DF91CF9126
:1007A0001F910F9108958B016F5F7F4F3BD700978B
:1007B00059F0998388831B830A832C813D81232BE5
:1007C00061F7FC011082E9CF80E0E8CFEF92FF9261
:1007D0000F931F93CF93DF93EC017B018A01BA0142
:1007E000CEDF28813981811113C02115310511F027
:1007F000C9018FD6198218821D821C821B821A821F
:10080000CE01DF91CF911F910F91FF90EF9008954E
:100810001D830C83B701C901F3D7F2CFFB0101900F
:100820000020E9F73197AF01461B570BCFCFCF938D
:10083000DF93EC01FB018617970741F0608171811E
:100840006115710539F044815581C0DFCE01DF911A
:10085000CF91089588819981009709F05AD619821D
:1008600018821D821C821B821A82F0CFFC01118229
:1008700010821382128215821482FB0101900020E3
:10088000E9F73197AF01461B570BA0CF0F931F938A
:10089000CF93DF938C01EB016AE172E08FE893E084
:1008A000E5DF6AE172E085E993E0E0DF6AE172E0AA
:1008B0008BE993E0DBDF1092A10381E08093A20338
:1008C0001092A3038093A4038CEE92E090938A038A
:1008D0008093890360E270E08BE993E050DF6AE186
:1008E00072E08BE993E09ADFB8018FE893E09FDF35
:1008F000BE0185E993E09BDF8091990390919A0373
:10090000892B29F46BE172E085E993E087DF84E6C7
:1009100090E09093A8038093A7031092A10381E035
:100920008093A2038093A4031092A903DF91CF9137
:100930001F910F9108951F920F920FB60F921124DD
:100940000BB60F922F933F934F935F936F937F93C9
:100950008F939F93AF93BF93EF93FF938CEE92E0AF
:100960004FDDFF91EF91BF91AF919F918F917F915B
:100970006F915F914F913F912F910F900BBE0F9010
:100980000FBE0F901F9018951F920F920FB60F92E7
:1009900011240BB60F922F938F939F93EF93FF9396
:1009A000E091FC02F091FD028081E0910203F09160
:1009B000030382FD1DC09081809105038F5F8F73BB
:1009C00020910603821741F0E0910503F0E0E45125
:1009D000FD4F958F80930503FF91EF919F918F912C
:1009E0002F910F900BBE0F900FBE0F901F90189578
:1009F0008081F2CF1F920F920FB60F9211240BB687
:100A00000F922F933F934F935F936F937F938F93A7
:100A10009F93AF93BF93EF93FF938DE392E0F0DC4E
:100A2000FF91EF91BF91AF919F918F917F916F91C6
:100A30005F914F913F912F910F900BBE0F900FBE82
:100A40000F901F9018951F920F920FB60F921124BE
:100A50000BB60F922F938F939F93EF93FF93E09199
:100A60004D02F0914E028081E0915302F0915402C8
:100A700082FD1DC09081809156028F5F8F732091FF
:100A80005702821741F0E0915602F0E0E35CFD4F1F
:100A9000958F80935602FF91EF919F918F912F91A7
:100AA0000F900BBE0F900FBE0F901F901895808176
:100AB000F2CF1F920F920FB60F9211242F933F93F4
:100AC0008F939F93AF93BF938091390290913A0295
:100AD000A0913B02B0913C023091380223E0230FF9
:100AE0002D3758F50196A11DB11D20933802809332
:100AF000390290933A02A0933B02B0933C0280915A
:100B0000340290913502A0913602B09137020196DD
:100B1000A11DB11D8093340290933502A09336023B
:100B2000B0933702BF91AF919F918F913F912F91D9
:100B30000F900FBE0F901F90189526E8230F029676
:100B4000A11DB11DD2CFCF93DF93CDB7DEB72C97C8
:100B50000FB6F894DEBF0FBECDBF1092EF02109219
:100B6000EE0248EE53E060E070E04093F0025093F4
:100B7000F1026093F2027093F3028AE092E09093A4
:100B8000ED028093EC022DEC30E03093F9022093DB
:100B9000F8022CEC30E03093FB022093FA0228ECB0
:100BA00030E03093FD022093FC0229EC30E03093DA
:100BB000FF022093FE022AEC30E0309301032093E1
:100BC00000032EEC30E030930303209302031092D5
:100BD0000503109206031092070310920803109267
:100BE000400210923F0240934102509342026093B0
:100BF00043027093440290933E0280933D0285EC41
:100C000090E090934A028093490284EC90E09093A4
:100C10004C0280934B0280EC90E090934E028093C4
:100C20004D0281EC90E09093500280934F0282EC51
:100C300090E0909352028093510286EC90E0909362
:100C4000540280935302109256021092570210924F
:100C50005802109259026DE172E0CE01079606DE4D
:100C600068E172E0CE01019601DEBE016F5F7F4F49
:100C7000CE0107960BDECE0101967ADDCE010796F6
:100C800077DD81E08093E7022EDD6093E8027093C8
:100C9000E9028093EA029093EB0281E38093DE0203
:100CA000EFEEF1E02491E9EAF1E084918823C9F0C4
:100CB00090E0880F991FFC01E25AFE4F4591549134
:100CC000FC01EC5BFE4FA591B4919FB7F894FA013B
:100CD00080812095822380838C91E22FE823EC93FE
:100CE0009FBF1092DF0288E290E09093E30280932E
:100CF000E2021092E6021092E1021092E00280916C
:100D0000DE029CDC2091DF022817190631F481E015
:100D100090E09093E1028093E00286E38093DA0210
:100D20001092DB021092DD021092DC0261E0AEDC78
:100D30001092DD021092DC028091DA0290E0FC0158
:100D4000E254FE4F249188589E4FFC0184918823E1
:100D500099F090E0880F991FFC01E25AFE4FA5918F
:100D6000B491FC01EC5BFE4F859194918FB7F894A0
:100D7000EC91E22BEC938FBF2C960FB6F894DEBF6C
:100D80000FBECDBFDF91CF910895CF93DF93CDB745
:100D9000DEB72C970FB6F894DEBF0FBECDBF7894A8
:100DA00084B5826084BD84B5816084BD85B5826070
:100DB00085BD85B5816085BD80916E008160809321
:100DC0006E0010928100809181008260809381008A
:100DD000809181008160809381008091800081609A
:100DE000809380008091B10084608093B1008091F5
:100DF000B00081608093B000809191008260809308
:100E00009100809191008160809391008091900089
:100E10008160809390008091A10082608093A10006
:100E20008091A10081608093A1008091A0008160E9
:100E30008093A000809121018260809321018091A4
:100E40002101816080932101809120018160809344
:100E5000200180917A00846080937A0080917A00EA
:100E6000826080937A0080917A00816080937A001A
:100E700080917A00806880937A001092C1008DE39F
:100E800092E0F3D980E895E2A0E0B0E080938B0394
:100E900090938C03A0938D03B0938E03809189036C
:100EA00090918A03E2D98091890390918A03DC01B1
:100EB000ED91FC910084F185E02D19951816190625
:100EC00064F48091890390918A03DC01ED91FC9197
:100ED0000284F385E02D1995E6CF1092A10381E0FD
:100EE0008093A2038093A403332433944424439433
:100EF000512C25E0622E712C33E0232E6AE172E042
:100F0000CE010796B3DC8091A10381112BC08091A3
:100F1000A2031092A2031092A4033092A303882389
:100F200069F06AE172E08BE993E078DC82E090E0BE
:100F30009093A6038093A5031092A903809189033F
:100F400090918A03DC01ED91FC910084F185E02D04
:100F500019951816190634F43092A1033092A203A1
:100F60003092A4038091A103B12C813009F077C0A5
:100F70009091A2031092A2031092A4038093A30362
:100F8000992331F083E090E09093A6038093A5032A
:100F9000B12C8091890390918A03DC01ED91FC9141
:100FA0000084F185E02D1995181619060CF057C02C
:100FB0008091890390918A03DC01ED91FC91028478
:100FC000F385E02D199589831A8200919F03109172
:100FD000A0030F5F1F4FB8018BE993E0D0DB88239C
:100FE00091F020919B0330919C0380919F039091FD
:100FF000A003BE016F5F7F4F820F931F01D4109338
:10100000A00300939F0320919F033091A003409180
:10101000990350919A032417350708F47CC08091F6
:101020009B0390919C03009709F475C06091950310
:10103000709196036115710509F46DC0241B350B81
:10104000820F931FD4D3892B09F065C0B2E0B0930F
:10105000A1033092A2033092A403BB24B3948091E5
:10106000A103823009F040C08091A2031092A20334
:101070001092A4033092A3038823B1F11092A60327
:101080001092A50380919F039091A0032091990352
:1010900030919A036FEF7FEF821B930B37DBE09069
:1010A0009303F0909403E114F104F1F080919F0315
:1010B0009091A003892B91F0C0909B03D0909C034A
:1010C00060918F0370919003C601B0D3009731F007
:1010D0008C010C191D090F3F100701F584E090E009
:1010E0009093A6038093A5038091A5039091A603F6
:1010F000039709F047C08091A90381111CC0309269
:10110000A903F1DA6093AA037093AB038093AC0355
:101110009093AD0337C0BB24B3943BCFB8016E0DA1
:101120007F1D90E080E0F2DA012BF1F25092A603ED
:101130004092A503D9CFD7DAAB01BC018091A703B8
:101140009091A803092E000CAA0BBB0B0091AA03D7
:101150001091AB032091AC033091AD03800F911F30
:10116000A21FB31F84179507A607B70708F0DDC0B5
:101170007092A6036092A5032092A1033092A2036D
:101180003092A403A090A503B090A6038091E6023C
:101190008823A1F0A8DA2091E4023091E502621BD5
:1011A000730B8091E2029091E3020091E0021091B2
:1011B000E1028617970788F51092E6028091DE0219
:1011C0003DDA4C01E090DF02F12CCC24C394D12C09
:1011D0008E149F0411F0D12CC12C86018091E00265
:1011E0009091E1028C159D05C1F08091E2029091F1
:1011F000E302892B39F077DA7093E5026093E40219
:101200003092E602D092E102C092E00202E010E0E9
:101210008E149F0411F003E010E092E0A916B104CF
:101220000CF099C01092A1033092A2033092A40353
:101230001A8219821C821B821E821D826BE973E056
:10124000CE010196F4DA8F819885009709F472C077
:1012500069817A816115710509F46BC049855A85E8
:101260002D813E814217530708F463C0C9D28D8196
:101270009E819C878B871E821D82CE01019678DA23
:10128000BE01695F7F4F8DE392E017D838DA0130F5
:10129000110509F080C08091E702882309F440C05D
:1012A00022DA0091E8021091E9022091EA023091DD
:1012B000EB02601B710B820B930B643F7140810545
:1012C000910570F16091DB028091DC029091DD026A
:1012D00001E010E0892B31F081E0611180E0682F9E
:1012E00010E000E08091DA02D1D91093DD02009382
:1012F000DC026DE272E0CE010196B8DACE01019611
:101300000E946B01CE01019633DA3092E702EBD9ED
:101310006093E8027093E9028093EA029093EB02F3
:10132000CE01079625DAF9D8E9CDBB2009F42ACFFA
:10133000E8CEEFD089819A8198878F838B819C81B9
:101340009A8789878D819E819C878B871A821982D3
:101350001C821B8290CFA4E0AA16B1040CF497CF94
:101360001092A1033092A2033092A4036FE172E0C5
:10137000CE0101967BDACE0101960E946B01CE016F
:101380000196F6D94DE050E06FE172E08DE392E016
:101390000E9484017BCF0330110509F0C1CF61E0C9
:1013A0008091DB02811160E08091DA026FD91092A6
:1013B000DD021092DC02B4CF8BE993E0D9D985E944
:1013C00093E0D6D98FE893E0D3C9EE0FFF1F881FB3
:1013D0008BBF0790F691E02D19940F931F93CF9335
:1013E000DF938230910510F482E090E0E091B00349
:1013F000F091B10330E020E0B0E0A0E0309799F444
:101400002115310509F44AC0281B390B2430310558
:10141000D8F58A819B816115710589F1FB01938360
:101420008283FE0111C040815181028113814817DE
:101430005907E0F04817590799F4109761F0129690
:101440000C93129713961C933296CF01DF91CF9194
:101450001F910F9108950093B0031093B103F4CF3F
:101460002115310551F04217530738F0A901DB016E
:101470009A01BD01DF01F801C1CFEF01F9CF9093CF
:10148000B1038093B003CDCFFE01E20FF31F819330
:1014900091932250310939832883D7CF2091AE030D
:1014A0003091AF03232B41F42091020230910302CB
:1014B0003093AF032093AE032091000230910102DC
:1014C0002115310541F42DB73EB7409104025091EA
:1014D0000502241B350BE091AE03F091AF03E21738
:1014E000F307A0F42E1B3F0B2817390778F0AC0147
:1014F0004E5F5F4F2417350748F04E0F5F1F509324
:10150000AF034093AE03819391939FCFF0E0E0E06F
:101510009CCFCF93DF930097E9F0FC0132971382C1
:101520001282A091B003B091B103ED0130E020E050
:101530001097A1F420813181820F931F2091AE0377
:101540003091AF032817390709F061C0F093AF035A
:10155000E093AE03DF91CF910895EA01CE17DF0744
:10156000E8F54A815B819E0141155105B1F7E9011A
:10157000FB83EA8349915991C40FD51FEC17FD07EE
:1015800061F4808191810296840F951FE90199830E
:101590008883828193819B838A83F0E0E0E01296C6
:1015A0008D919C9113970097B9F52D913C911197CE
:1015B000CD010296820F931F2091AE033091AF03AD
:1015C0002817390739F6309751F51092B103109268
:1015D000B003B093AF03A093AE03BCCFD383C28359
:1015E00040815181840F951FC817D90761F44E5F60
:1015F0005F4F88819981480F591F518340838A81A9
:101600009B81938382832115310509F0B0CFF0933C
:10161000B103E093B0039ECFFD01DC01C0CF138284
:101620001282D7CF4F925F926F927F928F929F924A
:10163000AF92BF92CF92DF92EF92FF920F931F93E0
:10164000CF93DF938C01009791F4CB01DF91CF9181
:101650001F910F91FF90EF90DF90CF90BF90AF90D0
:101660009F908F907F906F905F904F90B6CEFC01CF
:10167000E60FF71F9C0122503109E217F30708F427
:10168000AAC0D901CD91DC911197C617D70718F1DF
:10169000C530D10570F0CE0104978617970748F042
:1016A000C61BD70B2297C193D1936D937C93CF0127
:1016B00030DFC801DF91CF911F910F91FF90EF9024
:1016C000DF90CF90BF90AF909F908F907F906F9062
:1016D0005F904F9008955B01AC1ABD0A4C018C0ECF
:1016E0009D1EA091B003B091B103512C412CF12C5F
:1016F000E12C109731F58091AE039091AF038815DE
:10170000990509F05CC04616570608F058C080914C
:10171000000290910102009741F48DB79EB740916D
:10172000040250910502841B950BE817F90708F095
:1017300052C0F093AF03E093AE03F901718360836D
:10174000B8CF8D919C91119712966C901297139629
:101750007C901397A815B90559F56C0142E0C40EA9
:10176000D11CCA14DB0420F1AC014A195B09DA016F
:101770001296159780F06282738251834083D9015B
:101780006D937C93E114F10471F0D7011396FC93EF
:10179000EE9312978ECF22968C0F9D1FF9019183A5
:1017A0008083F301EFCFF093B103E093B00381CFD7
:1017B0004816590608F42C017D01D3019ACFCB01BC
:1017C0000CDE7C01009739F0AE01B80107D0C801EA
:1017D000A0DE87016ECF10E000E06BCFFB01DC01E3
:1017E00002C001900D9241505040D8F70895FB017E
:1017F000DC018D91019080190110D9F3990B0895A6
:10180000FB01DC0101900D920020E1F70895FB013E
:10181000DC014150504048F001900D920020C9F782
:1018200001C01D9241505040E0F70895FB015191D5
:101830005523A9F0BF01DC014D9145174111E1F796
:1018400059F4CD010190002049F04D91401541110E
:10185000C9F3FB014111EFCF81E090E001970895BA
:1018600011E0C3E0D1E000E005C0802FFE01ADDD56
:101870002196011DC430D10780E00807B1F7F89424
:02188000FFCF98
:101882000000B20380000000000022028401B101C6
:101892006E02E201C001D4010D0A000D0040006396
:1018A2006F6D6D616E64206572726F72006162634A
:0418B2006465000069
:00000001FF
